:020000040800F2
:100000005846002061020008C1200008F11A0008CB
:10001000311E0008BD0300084D2700080000000045
:10002000000000000000000000000000A101000826
:10003000BF03000800000000FD010008E1210008E6
:100040007B0200087B0200087B0200087B0200089C
:100050007B0200087B0200087B0200087B0200088C
:100060007B0200087B0200087B0200087B0200087C
:100070007B0200087B0200087B0200087B0200086C
:100080007B0200087B0200087B0200087B0200085C
:100090007B0200087B0200087B0200087B0200084C
:1000A0007B0200087B0200087B0200087B0200083C
:1000B000B1220008BD2200087B0200087B02000874
:1000C0007B0200087B0200087B0200087B0200081C
:1000D0007B020008ED2600087B0200087B02000876
:1000E0007B0200087B0200087B0200087B020008FC
:1000F0007B0200087B0200087B0200087B020008EC
:100100007B0200087B0200087B0200087B020008DB
:100110007B0200087B0200087B020008C92200085D
:100120007B0200087B0200087B0200087B020008BB
:100130007B0200087B0200087B0200087B020008AB
:100140007B0200087B0200087B0200087B0200089B
:100150007B0200087B0200087B02000841270008A0
:100160007B0200087B0200087B0200087B0200087B
:100170007B0200087B0200087B02000800000000F0
:100180007B0200087B020008DFF810D000F004F9C1
:10019000004800471D290008AFF3008058460020A2
:1001A0002C4B19680868B0E8F04F80F30988BFF35A
:1001B0006F8F4FF0000080F311887047000000003F
:1001C00008480068006880F308884FF0000080F35A
:1001D000148862B661B6BFF34F8FBFF36F8F00DF35
:1001E00000BF00BF08ED00E0DFF80C00016841F43B
:1001F00070010160704700BF88ED00E0EFF30980F7
:10020000BFF36F8F134B1A681EF0100F08BF20ED5D
:10021000108A20E9F04F106009B44FF0500080F3CD
:100220001188BFF34F8FBFF36F8F02F031FF4FF094
:10023000000080F3118809BC19680868B0E8F04F25
:100240001EF0100F08BFB0EC108A80F30988BFF3CE
:100250006F8F704720000020EFF30580704700008B
:100260000648804706480047FEE7FEE7FEE7FEE750
:10027000FEE7FEE7FEE7FEE7FEE7FEE7A122000855
:10028000890100082DE9F05F0546002092469B4653
:1002900088460646814640241BE02846414647469C
:1002A000224600F069F853465A46C01A914110D3CD
:1002B00011461846224600F050F82D1A67EB010847
:1002C0004F4622460120002100F047F817EB0009B5
:1002D0004E41201EA4F10104DFDC484631462A4687
:1002E0004346BDE8F09F40EA01039B0703D009E0C5
:1002F00008C9121F08C0042AFAD203E011F8013B12
:1003000000F8013B521EF9D27047D2B201E000F86A
:10031000012B491EFBD270470022F6E710B51346A9
:100320000A4604461946FFF7F0FF204610BD30B5D7
:100330000B46014600202022012409E021FA02F5A3
:100340009D4205D303FA02F5491B04FA02F528443D
:10035000151EA2F10102F1DC30BD202A04DB203A97
:1003600000FA02F1002070479140C2F1200320FA08
:1003700003F3194390407047202A04DB203A21FA06
:1003800002F00021704721FA02F3D040C2F12002AE
:100390009140084319467047064C074D06E0E06857
:1003A00040F0010394E8070098471034AC42F6D3BC
:1003B000FFF7EEFED8360008F8360008FEE7704773
:1003C00072B6FEE72DE9F0410446876D00F072F940
:1003D000064694F835000025022806D08020606586
:1003E00084F834500120BDE8F0812068016821F0D4
:1003F000160101602068416921F080014161206C93
:1004000008B9A06C20B12068016821F008010160E2
:100410002068016821F0010101600CE000F04AF958
:10042000801B052807D920206065032084F835004B
:1004300084F83450D7E720680068C007EED194F8FC
:100440005C103F208840B860012084F8350084F8B3
:1004500034500020C7E790F83510022903D08021DE
:10046000416501207047052180F83510006801685A
:1004700021F00101016000207047000070B50446C2
:1004800000F018F90546601C02D0044800780444C6
:1004900000F010F9401BA042FAD370BD10000020FC
:1004A0002DE9F84FDFF8BCA10022012503264FF00B
:1004B0000F090AF1040BAAF1040E00BF0B6805FA3C
:1004C00002F42340A34270D10F7907F00307012FF4
:1004D00001D0022F16D187684FEA420806FA08FCBD
:1004E00027EA0C07D1F80CC00CFA08FC4CEA070C00
:1004F000C0F808C04768A7430C79C4F300149440BF
:100500003C4344600C79E443A4070AD0C4684FEA32
:10051000420C06FA0CF7BC438F6807FA0CF7274326
:10052000C7600C7904F00304022C12D1D40800EB4C
:10053000840CDCF820405707FF0E09FA07F824EA7C
:100540000804D1F8108008FA07F848EA0408CCF843
:10055000208004684FEA420C06FA0CF7BC430F797E
:1005600007F0030707FA0CF7274307604C6814F4F9
:10057000403F70D03C4C276847F480472760246890
:1005800022F0030704F480440094384C07EB040C79
:10059000DCF8084897074FEA177809FA08F7BC43D0
:1005A000334FB84202D1002724E054E0314FB84223
:1005B00001D101271EE0304FB84201D1022719E0D6
:1005C0002E4FB84201D1032714E02D4FB84201D17C
:1005D00004270FE02B4FB84201D105270AE02A4F2C
:1005E000B84201D1062705E0284FB84201D10727BC
:1005F00000E0082707FA08F72743CCF80878DAF86C
:1006000000405746D1F804C09C435FEACC2C00D58B
:100610001C433C60DBF800405F46D1F804C09C43BB
:100620005FEA8C2C00D51C433C60DEF80040774626
:10063000D1F804C09C435FEA8C3C00D51C433C606D
:10064000084F083F3C68D1F804C09C435FEACC3CAB
:1006500000D51C433C60521C102AFFF42FAFBDE8AC
:10066000F88F0000083C014044380240003001404F
:10067000000002400004024000080240000C02405A
:10068000001002400014024000180240001C02400A
:100690000069084000D001207047426921EA020346
:1006A0000A4043EA0241816170470AB181617047A3
:1006B0000904FBE701488068704700001000002033
:1006C0000248816802781144816070471000002060
:1006D0000B4810B5016841F400710160016841F4F4
:1006E00080610160016841F480710160032000F0C5
:1006F0009FF80F2000F006F800F050F8002010BD21
:10070000003C024030B505461F4887B00024016810
:1007100041F020010160006806A900F0200000906F
:1007200001A800F0CFF90498A8B100F0EBF940005F
:100730001649174AB0FBF1F11648491E026040F213
:10074000E732C0E90324C0E90114846100F0C6FD6A
:10075000040003D015E000F0D5F9E9E70D4800F0FA
:100760001BFE04000DD1372000F034F8102D07D205
:1007700000222946372000F03BF80748056000E0DA
:10078000012407B0204630BD4038024040420F00EF
:100790000014004034040020140000200C4882B0F3
:1007A000016841F480410160006800F480400090DD
:1007B0000748001F016841F0805101600068002275
:1007C00000F0805000900F21901E02B000F010B891
:1007D00044380240002809DB00F01F02012191404B
:1007E0004009800000F1E020C0F8001170470000CF
:1007F000F0B40E4B1B680C46C3F30223C3F107058C
:10080000042D00D90425191D072901D2002300E079
:10081000DB1E012606FA05F1491E214099409E4043
:10082000761E16403143F0BC01F0A2BF0CED00E093
:10083000064900F0070208684FF6FF03184040EA37
:100840000220034A10430860704700000CED00E0EE
:100850000000FA052DE9F843054600684FF001094C
:10086000C1074FF0000601D1400727D5DFF80C8102
:10087000C8F86860FFF71EFF0746414C05E000BF5F
:10088000FFF718FFC01B022857D820680001F7D4D3
:1008900068688101287A41EA00703949843108602A
:1008A000C8F86890FFF706FF074604E0FFF702FF6D
:1008B000C01B022841D820680001F7D5287880079E
:1008C00052D52F484030016841F0805101600068E6
:1008D0002C4C00F080500090206840F48070206024
:1008E000FFF7E8FE074604E0FFF7E4FEC01B02281E
:1008F00023D82068C005F7D5214C7034206810F447
:10090000407020D0A98901F4407181421BD0206839
:100910001D4920F44070C1F800900E6020602068EE
:10092000C00710D0FFF7C6FE064641F2883707E041
:10093000FFF7C0FE801BB84202D90320BDE8F88350
:1009400020688007F4D5E9680D48C1F3012208301A
:10095000032A0BD0016821F4F81101602068A989ED
:10096000C1F30B01084320600020E7E70268074B52
:1009700022F4F81219400A430260EFE700004742F0
:100980000038024000700040400E4742FFFCFF0F5D
:100990002DE9F0470E46050065D0DFF81481D8F840
:1009A0000000F7B200F00700B04207D288F80070EC
:1009B000D8F8000000F00700B04254D128683D4C40
:1009C000810712D5400703D5206840F4E05020602D
:1009D0002878000703D5206840F460402060206834
:1009E000A96820F0F000084320602878C0072DD0C7
:1009F000304968680839012812D0022813D003282A
:100A000011D00968890700292DDA216821F0030136
:100A100001432160FFF74EFE814641F2883A0EE025
:100A200009688903EFE709688901ECE7FFF742FEEF
:100A3000A0EB0901514502D90320BDE8F0872068E9
:100A4000696800F00C00B0EB810FEFD1D8F800100E
:100A5000404601F00701B14207D90770006800F075
:100A60000700B04201D00120E7E72878400705D50C
:100A70002068E96820F4E0500843206028780007E7
:100A800006D52068296920F4604040EAC100206052
:100A900000F058F82168084AC1F30311515CC840BE
:100AA0000649086006480068FFF72CFE0020C4E7EE
:100AB000003C024008380240903400081C0000202E
:100AC000140000200F2202600C4A136803F0030395
:100AD0004360136803F0F0038360136803F4E0538A
:100AE000C36012684FF4E05303EAD2020261044883
:100AF000006800F0070008607047000008380240F6
:100B0000003C02400448054900680968044AC1F3F2
:100B10008221515CC84070471C0000200838024008
:100B2000A03400080448054900680968044AC1F374
:100B30004231515CC84070471C0000200838024018
:100B4000A0340008154810B5006810F00C021448D5
:100B500013D04110042A0FD0082A0ED10F4C241FA5
:100B60002268236802F03F025B0207D52068C0F3C9
:100B70008810A0FB010106E0084610BD2168C1F302
:100B80008811A1FB00010023FFF77CFB2168C1F362
:100B90000141491C4900B0FBF1F010BD083802408A
:100BA0000024F4002DE9F84F04006ED02078DFF81F
:100BB0004C93C007A9F104054AD009F1040001686B
:100BC000C1F38101012908D00068C0F38100022827
:100BD0000AD1D9F80000400206D52868800337D52D
:100BE00060680028E1D033E06068B0F5803F10D045
:100BF000B0F5A02F286810D020F480302860286835
:100C000020F4802028606068A8B1FFF753FD0646F5
:100C10000DE0286840F48030F4E740F4802028603C
:100C2000F7E700BFFFF746FD801B642873D82868EC
:100C30008003F7D50CE0FFF73DFD064605E000BF59
:100C4000FFF738FD801B6428F0D828688003F7D4AC
:100C50002078DFF8AC8280074FF0000A3ED5A74825
:100C6000001D016811F00C0F08D00068C0F381006E
:100C700002280BD1D9F80000400207D42868800769
:100C800016D5E068012800D112E033E1E068B8B180
:100C90000120C8F80000FFF70DFD064605E000BF83
:100CA000FFF708FD801B0228C0D828688007F7D509
:100CB0002868216920F0F80040EAC10028600DE0B2
:100CC000C8F800A0FFF7F6FC064604E0FFF7F2FCC8
:100CD000801B02281FD828688007F7D420780007D7
:100CE00022D5864F87486169703771B10121016053
:100CF000FFF7E0FC064604E0FFF7DCFC801B02285F
:100D000009D838688007F7D50EE0C0F800A0FFF7D3
:100D1000D1FC064605E082E0FFF7CCFC801B0228F0
:100D20007DD838688007F7D42078400768D5DFF889
:100D3000CCB100270BF13C0BDBF80000C0000BD45A
:100D4000DBF8001041F08051CBF80010DBF8000018
:100D5000012700F0805000906B4E3068C00510D421
:100D6000306840F480703060FFF7A4FC009005E02C
:100D7000FFF7A0FC0099401A022850D83068C0053F
:100D8000F6D55E4EA0686C3601280FD00528306875
:100D900010D020F001003060306820F00400306096
:100DA000A068B8B1FFF786FC00900FE0306840F013
:100DB0000100F4E740F004003060F7E7FFF77AFC49
:100DC0000099411A41F28830814266D83068800724
:100DD000F4D50EE0FFF76EFC009007E0FFF76AFC29
:100DE0000099411A41F28830814256D83068800714
:100DF000F4D42FB1DBF8001021F08051CBF80010B3
:100E0000A069C8B33D49091D0968C1F381010229E0
:100E10004AD00228504607D0C8F8600000E03CE005
:100E2000FFF748FC04463BE04746C8F86000FFF780
:100E300041FC064605E000BFFFF73CFC801B022892
:100E40002BD828688001F7D4D4E907010843A16AA8
:100E50002E4A490802EB0141626A41EA82110843C5
:100E600094F82C1040EA0161C9F80010012038669E
:100E7000FFF720FC044606E03EE000BFFFF71AFC47
:100E8000001B022809D828688001F7D534E000BF8C
:100E9000FFF710FC001B022802D90320BDE8F88FE1
:100EA00028688001F4D427E00128F7D0D9F80000A1
:100EB000E26900F4800191421CD1226A00F03F01F6
:100EC000914217D147F6C071626A0140B1EB821FAF
:100ED00010D1A26A4FF0FF3300F4403103EB52020D
:100EE000B1EB024F06D194F82C1000F07060B0EB1B
:100EF000016F01D00120D1E70020CFE70438024084
:100F000000004742800E4742007000400000FFFF93
:100F10002DE9F74F0446007F934601281BD04FF080
:100F2000010884F81C80022060772168CA2048628A
:100F3000206853214162206880684FF00005400519
:100F40004FF0FF064FF0030A4FF47A790FD5FFF701
:100F5000B1FB074607E00220BDE8FE8FFFF7AAFBC2
:100F6000C01B484519D82068C0684007F6D42068DF
:100F7000816821F4806181602068C16801F080018E
:100F800061F49061C160FFF795FB07460CE000BF7C
:100F9000FFF790FBC01B484506D92068466284F8DD
:100FA0001DA025770320D7E72068C0684007EFD54C
:100FB0002068816821F0070181602068816841EA2A
:100FC0000B0181602168019848612068816841F4C3
:100FD000806181602068466284F81D80257700204A
:100FE000BAE7000010B5040002D0607F10B106E03F
:100FF000012010BD00202077204600F041F802209B
:1010000060772068C168C943C90632D5CA214162E8
:10101000216853204862204601F07EF820BB2068FA
:101020008168164A114081602168886862681043AF
:10103000D4E904231A43104388602168E0680861FA
:1010400020680169228941EA02410161204601F0DC
:1010500087F848B921680A6C22F480220A64216862
:101060000A6CA3691A430A642268FF21516208B11D
:1010700010BD00200121617710BD0000BFFF8FFF70
:101080001FB5002100910191029103910068084968
:1010900088420CD102200090000203906846FFF7BE
:1010A000D9FB08B1FFF78CF90249012008601FBD88
:1010B000002800403C0E474270B50446007F0B46B6
:1010C000012819D00126267702206077B2B19878DE
:1010D000D97840EA014558781978000240EA413051
:1010E00005432168CA20486221685320486220468F
:1010F00001F012F8D0B122E0022070BD5878C1068C
:1011000003D500F0EF000A305870D87800F0F8FFEF
:101110000204587800F0F4FF42EA0022987800F0C8
:10112000EFFF0243187842EA4035DAE70748054006
:1011300020684560204601F013F800B96677226800
:10114000FF2151620021217770BD00003FFFFF00A9
:101150002DE9F0410446007F0D46012823D04FF0D1
:10116000010884F81C8002206077206800278068CE
:101170004FEA4060D2B1002800DBEF70A8782978F0
:1011800040EA01466878E978000240EA8150064367
:101190002168CA204862216853204862204600F036
:1011A000BBFFB8B12CE00220BDE8F081002800DBD5
:1011B000EF70287800F0A4FF0204687800F0A0FF28
:1011C00042EA0022A87800F09BFF0243E87842EA56
:1011D0008056DDE70D48064020680660206881687B
:1011E00021F480218160D5E90301084321688A68E0
:1011F00010438860204600F0B3FF08B984F81D80D2
:101200002268FF2151622777CEE700007F7F7F00B1
:1012100070B504460B482168C860FFF74BFA0546D5
:101220004FF47A7607E000BFFFF744FA401BB04264
:1012300001D9032070BD2068C0688006F4D5002065
:1012400070BD00005F7F01007047704770B590F877
:101250003C20012A32D0012480F83C40022280F850
:101260003D2003685A689D6822F070060A68324380
:101270005A60134B02689A4214D0B2F1804F11D0D9
:10128000104B9A420ED0104B9A420BD00F4B9A4201
:1012900008D00F4B9A4205D00E4B9A4202D00E4B0B
:1012A0009A4204D1496825F080031943916080F87F
:1012B0003D40002180F83C10084670BD022070BD02
:1012C000000001400004004000080040000C004005
:1012D00000040140004001400018004010B5040027
:1012E00003D094F83D0010B107E0012010BD0020AC
:1012F00084F83C00204600F01FF8022084F83D00EE
:10130000211D206800F0E6FF012084F8460084F8E3
:101310003E0084F83F0084F8400084F8410084F8DF
:10132000420084F8430084F8440084F8450084F8BF
:101330003D00002010BD000008B501681448B1F15F
:10134000804F14D0134A914220D1016841F002012C
:1013500001600068002200F00200009005211D20BD
:10136000FFF746FA1D20BDE80840FFF733BA0168D1
:1013700041F0010101600068002200F001000090CE
:1013800005211C20FFF734FA1C20ECE708BD000003
:10139000403802400004004090F83D10012901D07F
:1013A00001207047022180F83D100168CA6842F0B0
:1013B0000102CA6000681149884214D0B0F1804F20
:1013C00011D00F4988420ED00E4988420BD00E49E9
:1013D000884208D00D49884205D00D49884202D084
:1013E0000C49884204D1816801F00701062903D025
:1013F000016841F0010101600020704700000140D8
:101400000004004000080040000C004000040140BF
:10141000004001400018004070B5044690F83C00C0
:101420000025012817D0012684F83C60022084F8AA
:101430003D002068826822F0770222F47F428260B9
:101440000868502838D00DDC20284FD005DC90B338
:10145000102811D14AE0022070BD302846D0402823
:101460000AD13BE060282FD070280DD0B0F5805F06
:1014700003D0B0F5005F12D0012584F83D60002054
:1014800084F83C00284670BDCB68D1E90121206872
:1014900000F08CFF2068816841F0770109E0CB689B
:1014A000D1E90121206800F081FF2068816841F4C2
:1014B00080418160E1E719E0CA684968206800F06E
:1014C00087FF5021206806E0CA684968206800F05C
:1014D00090FF6021206800F073FFCEE7CA6849687A
:1014E000206800F075FF40212068F4E7226801467B
:1014F0001046F0E770472DE9F04104460068C668E1
:1015000005694FF00007A90713D5B10711D5F91EDA
:10151000016101202077206880698007204602D081
:10152000FFF7E8FF04E000F07EF8204600F07CF8CA
:101530002777680716D5700714D521686FF0040067
:101540000861022020772068806910F4407F2046DF
:1015500002D0FFF7CFFF04E000F065F8204600F06E
:1015600063F82777280715D5300713D521686FF062
:1015700008000861042020772068C06980072046A1
:1015800002D0FFF7B7FF04E000F04DF8204600F06E
:101590004BF82777E80616D5F00614D521686FF0CA
:1015A00010000861082020772068C06910F4407F8F
:1015B000204602D0FFF79EFF04E000F034F82046FA
:1015C00000F032F82777E80708D0F00706D0216846
:1015D0006FF001000861204600F028F8280608D5C1
:1015E000300606D521686FF0800008612046FFF7BD
:1015F0002BFE680608D5700606D521686FF04000FE
:101600000861204600F042F8A8060AD5B00608D5C1
:1016100021686FF0200008612046BDE8F041FFF727
:1016200014BEBDE8F08170477047000010B5044655
:1016300000681349884201D1FFF742F81149206838
:10164000096888421BD11048012290F8671061B1E7
:1016500090F86510491CC9B280F86510082904D3B8
:10166000002180F8671080F86820D0F8E410491C49
:10167000C0F8E410B1F57A7F01DD80F8E82010BDF4
:10168000001400405C0300206C410020704770474C
:1016900070470000F8B5016804460868CA684B69DD
:1016A00010F00F0F4FF0000559D003F0010602F4BF
:1016B0009077374365D0C10705D0D10503D5616C5C
:1016C00041F001016164410705D5D90703D0616C80
:1016D00041F002016164810705D5D90703D0616C2F
:1016E00041F004016164010707D502F02001314394
:1016F00003D0616C41F008016164616C00293AD04B
:10170000800604D5900602D5204600F0B3FE20687E
:101710004069616CC0F38010090700D460B32046B3
:1017200000F081FE20684069400621D52068143011
:1017300050E8001F21F0400140E80012002AF5D1D6
:10174000E06BA8B16E490165E06BFEF784FE0028EE
:1017500011D0E06B016D01B0BDE8F0400847830691
:101760000FD593060DD52046BDE8F84000F082BEA7
:101770002046FFF78DFFF8BD2046FFF789FF65641F
:10178000F8BD266B2023012E7DD1C6067BD5D6065B
:1017900079D508684868009048694FF0020640060D
:1017A00041D5E16B086840680004000CE8D0A28DC8
:1017B0008242E5D9E085C869B0F5807F2DD02068E8
:1017C0000C3050E8001F21F4807140E80012002A1C
:1017D000F5D12068143050E8001F21F0010140E8E5
:1017E0000012002AF5D12068143050E8001F21F0C3
:1017F000400140E80012002AF5D184F84230256308
:1018000020680C3050E8001F21F0100140E8001261
:10181000002AF5D1E06BFEF7D5FD6663A08DE18D62
:10182000401A81B22AE0A08DE18D401A81B2E08D8C
:101830000028A5D00029A3D022680C3252E8000F5E
:1018400020F4907042E80007002FF5D12068143092
:1018500050E8002F22F0010240E80027002FF5D1C8
:1018600084F84230256320680C3050E8002F22F0C5
:10187000100240E80023002BF5D166632046FFF7F5
:1018800006FFF8BDFFE705062BD5150629D594F808
:1018900041002128F5D1A068B0F5805F01D1206911
:1018A000B0B1206A411C2162216800784860E08C58
:1018B000401E0004000CE084E3D12068C16821F0E0
:1018C0008001C1602068C16841F04001C160D8E773
:1018D000206A0088C0F308004860206A801C2062EB
:1018E000E5E74006CDD55006CBD5CA68204622F0A4
:1018F0004002CA6084F8413000F0F9F8C1E7000006
:101900001724000870B5040004D094F841000025A5
:1019100010B106E0012070BD84F84050204600F070
:1019200023F8242084F841002068C16821F4005184
:10193000C160204600F000FE2068016921F490415A
:1019400001612068416921F02A0141612068C16874
:1019500041F40051C1606564202084F8410084F89E
:1019600042006563002070BD70B586B00446142146
:101970006846FEF7D1FC2A48284E256800242849ED
:10198000143802220323B54220D10D6845F010051A
:101990000D60096801F010010591016841F0010135
:1019A00001600068694600F00100059058028DE86A
:1019B00015000720CDE903301A48FEF771FD00221B
:1019C00005212520FEF714FF252022E0164EB54202
:1019D00021D10D6845F020050D60096801F0200156
:1019E0000591016841F0040101600068694600F05A
:1019F00004000590C0208DE815000820CDE90330D3
:101A00000A48FEF74DFD002206214720FEF7F0FEB2
:101A10004720FEF7DFFE06B070BD00000010014059
:101A20004438024000000240001401400008024017
:101A300090F84230202B01D00220704721B11AB11A
:101A40000023036300F0FEBD0120704770472DE9BD
:101A5000F843044690F84100984616460D46202863
:101A600002D00220BDE8F88385B17EB10020606419
:101A7000212084F84100FEF71DFEA6848146E684FD
:101A8000A0682027B0F5805F02D003E00120E9E7DD
:101A9000206910B12E4600250EE000260CE08021C2
:101AA000204600F0EAFDA8B9C6B116F8010B21687E
:101AB0004860E08C401EE084E08C4B464FF0000212
:101AC000CDF800800028EAD14FF04001204600F018
:101AD000D4FD40B184F841700320C3E735F8020B10
:101AE000C0F30800E3E784F841700020BAE77047CC
:101AF000FEE7000010B59CB01C2216496846FEF7B0
:101B0000F2FB0021684600F043FF134C11491C22F0
:101B100020601C3107A8FEF7E6FB002107A800F0B3
:101B200037FF0C4960601C2238310EA8FEF7DBFB42
:101B300000210EA800F02CFF0649A0601C225431A1
:101B400015A8FEF7D0FB002115A800F021FFE060EA
:101B50001CB010BD20340008000000202DE9F04723
:101B600086B014216846FEF7D7FB38484FF0000ACC
:101B7000016841F080010160016801F08001059178
:101B8000016841F010010160016801F01001059148
:101B9000016841F002010160016801F00201059154
:101BA000016841F004010160016801F00401059140
:101BB000016841F001010160016801F00101059136
:101BC000016841F0080101600068214F00F0080041
:101BD0004FF440640590012221463846FEF765FD2A
:101BE000DFF870803E15002231464046FEF75DFD6D
:101BF000DFF86490012203214846FEF756FD009469
:101C000001240225694638460194CDE90245FEF7D4
:101C100047FC0096CDE90145694640460395FEF72D
:101C20003FFCE002CDE9000A694602944046FEF717
:101C300037FC0320CDE9000469464846CDE902455A
:101C4000FEF72EFC06B0BDE8F087000030380240F9
:101C50000010024000040240000C024010B586B0A3
:101C600014216846FEF758FB204800241E490594BD
:101C7000C0E900147F218160FF21C0E903144461A1
:101C80008461FFF7AFF908B1FEF79AFB8DF80040C9
:101C90008DF801408DF802400394012269461348F3
:101CA0000494FFF755FA08B1FEF78AFB01208DF87E
:101CB00014008DF8150012208DF816008DF81740CD
:101CC000012205A90948FFF7F7F908B1FEF778FBEB
:101CD000002211460548FFF71BF9002801D0FEF746
:101CE0006FFB06B010BD000000280040F402002089
:101CF00010B586B000241648009401940294039411
:101D000004944FF08041059401604721C0E901141B
:101D100040F2D661C0E903148461FFF7DFFA08B12D
:101D2000FEF74EFB4FF48050009069460848FFF7DD
:101D300073FB08B1FEF744FB049404A9044805941E
:101D4000FFF784FA002801D0FEF73AFB06B010BD79
:101D50001403002010B586B00024184800940194A4
:101D60000294039404941449059401604721C0E946
:101D7000011440F2E731C0E9031480218161FFF7CB
:101D8000ADFA08B1FEF71CFB4FF480500090694695
:101D90000A48FFF741FB08B1FEF712FB049404A9BF
:101DA00006480594FFF752FA08B1FEF709FB03480D
:101DB000FFF7F2FA06B010BD000400405C030020FB
:101DC0000C4810B50A4901604FF4E131416000212F
:101DD00081600C22C160C0E904128161C161FFF71A
:101DE00091FD002803D0BDE81040FEF7E9BA10BD10
:101DF00000100140A40300200C4810B50A490160FE
:101E00004FF4E1314160002181600C22C160C0E9E2
:101E100004128161C161FFF775FD002803D0BDE8A0
:101E20001040FEF7CDBA10BD00140140EC030020B5
:101E3000FEE7000070B5094DFF22134605F58076D8
:101E400006E000BF10F8014B54402A5D5A40335D54
:101E5000491E89B2F6D243EA022070BDA8340008B8
:101E600010B51A4C94F8680000282ED094F866003B
:101E7000801E81B2601CFFF7DDFF94F86610621EC1
:101E8000635C895C03EB012189B2884219D16078D7
:101E90002178884215D1A078112812D2DFE800F00D
:101EA0001111110911110C1111111111111111112F
:101EB0000F0000F059F804E000F0AEF801E000F087
:101EC00007F8002004F8660FA07010BD6C410020D8
:101ED0002DE9F0472249DFF88CC089460D79CB788F
:101EE0008A7905EB03204E7984B202EB062087B293
:101EF00000200CE009EB400191F80980097A08EB19
:101F0000012104EB0008401C2CF8181080B2B842E4
:101F1000F0D399F8010089F8690099F8020089F86E
:101F20006A0089F86B3089F86C500D4889F86D604B
:101F300089F86E200621693009F15104FFF77AFF14
:101F4000010AA177E0770025513C601990F86900FB
:101F500000F0ACF86D1CADB2082DF6D3BDE8F087EB
:101F60006C410020880000202DE9F041254D03241C
:101F7000254F2879E97800EB012086B2A8796979A4
:101F800000EB012082B2287885F8690029460320F9
:101F900081F86A00500081F86B00002010E03118D1
:101FA00005EB040C37F81130641C190A8CF8691021
:101FB000E1B26C18491C84F86930401CCCB2C0B244
:101FC0009042ECD30F4821466930FFF733FF2A19BE
:101FD000010A82F86910641CE1B26A18491C82F88F
:101FE0006900CEB209A000F0B3FB002406E0281976
:101FF00090F8690000F05AF8641CE4B2B442F6D3D9
:10200000BDE8F0816C41002088000020B7A2CBCD54
:10201000CAFDBEDD0D0A000070B51C4C23462079B8
:10202000E178254600EB012082B2A079617900EBCE
:102030000120174921F81200217884F8691006213F
:1020400083F86A10130A85F86B30234683F86C20F6
:10205000020A83F86D201A4682F86E0002F16900C8
:10206000FFF7E8FE2246010A82F86F1011460826A3
:1020700081F870000025601990F8690000F016F8EA
:102080006D1CADB2B542F6D370BD00006C410020AE
:1020900088000020044801210022017080F8672098
:1020A00080F8E110704700006C41002001B5FF236B
:1020B000012269460148FFF7CAFC08BDA4030020BD
:1020C000FEE7000070B50D4D4FF400642146284630
:1020D000FEF7DEFA002810D13220FEF7CFF92146B4
:1020E0002846FEF7D5FA0028F9D02846BDE870400A
:1020F00000224FF48061FEF7D8BA70BD00040240A0
:10210000002102E00A38C0B2491C0A28FAD20907A5
:1021100040EA1160704700002DE9F0410446006874
:102120000025C168490618D4C16841F08001C1602A
:10213000FEF7C0FA06464FF47A78042707E000BF9E
:10214000FEF7B8FA801B404501D967770125206862
:10215000C068400601D4002DF2D02846BDE8F081C9
:1021600070B5044600680025C16821F08001C16097
:1021700020688068800606D42046FFF749F810B131
:10218000042060770125284670BD012000F0F4FB93
:10219000FBE70000074C4FF4FA7501212046FEF7DB
:1021A0007CFA02212046FEF778FA284600F0E4FB8C
:1021B000F3E70000000C0240044C00BF94F8E80074
:1021C0000028FBD0FFF74CFEF8E700006C41002030
:1021D0004FF4FA7000F0D0FBFFF774FF1420F9E71A
:1021E00010B5502080F31188BFF34F8FBFF36F8F6E
:1021F00001F04EF818B104494FF0805008600020FB
:1022000080F3118810BD000004ED00E030B593B0FC
:1022100030216846FEF780F814210CA8FEF77CF800
:102220001D480025016841F080510160006800F000
:10223000805011901948016841F4804101600068A4
:10224000022400F480401190092000904FF4803067
:1022500001900120CDE905048005079008AA04201B
:10226000482182E813000B906846FEF79BFC08B1FA
:1022700072B6FEE70CA90F2081E831004FF48050C0
:10228000CDE90F0502210CA8FEF782FB002801D042
:1022900072B6FEE713B030BD403802400070004017
:1022A0000248016841F470010160704788ED00E068
:1022B0000148FFF720B90000140300200148FFF790
:1022C0001AB900005C0300200148FFF714B90000B0
:1022D00034040020F0B50268294C2A4D2A4E2B4FB9
:1022E0002B4B4FF0804CA04209D0604507D0A8424C
:1022F00005D0B04203D0B84201D0984204D122F0B8
:10230000700E4A6842EA0E02A0421BD0604519D006
:10231000A84217D0B04215D0B84213D0984211D07D
:102320001C4DA8420ED01C4DA8420BD01B4DA842FC
:1023300008D01B4DA84205D01A4DA84202D01A4D14
:10234000A84203D122F44075CA682A434D6922F09D
:1023500080022A4302608A68C2620A688262A042DE
:1023600001D0984201D109690163012141610169EC
:10237000C90703D0016921F001010161F0BD00002E
:10238000000001400004004000080040000C004034
:102390000004014000400140004401400048014069
:1023A00000180040001C00400020004010B5846868
:1023B00042EA032224F47F440A432243826010BD90
:1023C000826822F070020A4342F007018160704780
:1023D00010B5036A046A24F001040462846924F0DD
:1023E000F00444EA021423F00A020A438461026200
:1023F00010BD10B5036A046A24F0100404628469F5
:1024000023F0A00324F4704444EA023243EA0111A9
:102410008261016210BD10B5806B0021C185C1844D
:10242000FFF736F910BD01680C3151E8002F22F496
:10243000907241E80023002BF5D10168143151E876
:10244000002F22F0010241E80023002BF5D1016B9F
:10245000012909D101680C3151E8002F22F0100246
:1024600041E80023002BF5D1202180F84210002103
:102470000163704708B590F84210222901D002206C
:1024800008BD82684FF480539A4201D1016921B19D
:10249000816A9A421BD04AB10AE00268816A526896
:1024A000C2F308020A80816A891C08E0026972B1DD
:1024B0000268526802F07F020A70816A491C8162D8
:1024C000C18D491E0904090CC18503D01BE00268B7
:1024D0005268F1E70168CA6822F02002CA60016808
:1024E000CA6822F48072CA6001684A6922F0010257
:1024F0004A61202180F8421000214163026B012AC9
:1025000003D0FFF7A3FA002008BD016301680C3176
:1025100051E8002F22F0100241E80023002BF5D1F2
:1025200001680A68D20602D50A6849680091818D5F
:10253000FFF7ADF8E7E7000070B5044600680169F1
:10254000E26821F44051114301612169A068E26908
:1025500008436169114308432168CA6849F20C6362
:102560009A430243CA6020684169A26921F440711C
:102570001143416131492068884202D03049884284
:1025800002D1FEF7CFFA01E0FEF7BCFAE2690023C0
:10259000192164253226B2F5004F626828D0A0FBCD
:1025A0000101930F9200FDF76DFE0146B0FBF5F0BF
:1025B0006FF01802504301EB800006EB0010B0FBF7
:1025C000F5F000F0F002B1FBF5F002EB0012B1FB08
:1025D000F5F06FF01803584301EB800006EB001094
:1025E000B0FBF5F000F00F0021681044886070BD6A
:1025F000A0FB010192185B41FDF744FE0146B0FBD0
:10260000F5F00201B1FBF5F06FF01803584301EB50
:10261000800006EBC000B0FBF5F000F0F80002EB24
:102620004002B1FBF5F0584301EB800006EBC0001F
:10263000B0FBF5F000F00700D6E700000010014005
:102640000014014081628285C285002141642221FB
:1026500080F84210016921B10168CA6842F48072B1
:10266000CA6001684A6942F001024A610068C168B3
:1026700041F02001C160002070472DE9F8439846E1
:1026800017460D460446089E24E0701C22D0FEF733
:1026900011F8A0EB0800B0421AD8CEB12068C1688A
:1026A000490717D5802D15D0402D13D00168C94397
:1026B00009070FD401680025406800902046FFF705
:1026C000B2FE0820606484F840500120BDE8F88321
:1026D0000320FBE72068006835EA000004D00020F2
:1026E000B842D2D00020F1E70120F9E710B5114837
:1026F000FEF7D0FF104890F86810012919D00F4953
:1027000090F866300A78411C5A5490F866100022FE
:10271000491CC9B280F8661080F86520012901D1F2
:1027200080F86710BDE81040012204490148FFF716
:102730007FB910BDA40300206C4100209800002048
:102740000148FEF7A7BF0000EC030020FEE70000F1
:102750000FB4054B10B503A9044A029800F028F8FD
:1027600010BC5DF814FB0000052900089C00002047
:102770000907090E002804DB00F1E02080F80014AE
:10278000704700F00F0000F1E02080F8141D704742
:1027900002E008C8121F08C1002AFAD1704770472A
:1027A000002001E001C1121F002AFBD17047000088
:1027B0002DE9FF4F89B09B460446002506E02528F9
:1027C0000BD05A460B999047641C6D1C207800284A
:1027D000F5D10DB02846BDE8F08F0027B84601229C
:1027E000474900E0074314F8013F203B02FA03F099
:1027F0000842F7D120782E2819D114F8010F47F09C
:1028000004072A280ED06FF02F022078A0F13001A3
:1028100009290CD808EB880102EB410100EB010803
:10282000641CF2E70A98641C50F8048B0A90207824
:102830000028CED0642808D0692806D075281ED07C
:102840005A460B9990476D1C58E00A994FF00A09B7
:1028500001C90A91002802DA40422D2102E039051F
:1028600004D52B218DF82010012103E0F90704D0B5
:102870002021F7E78A4608AE0DE00021FAE70A9921
:102880004FF00A0901C90A91F7E74946FDF74FFDE4
:10289000303106F8011D0028F7D1ADEB060000F13C
:1028A0002009780701D44FF00108C84502DDA8EBE4
:1028B000090000E000208046002706E008A85A46EC
:1028C000C05D0B9990476D1C7F1C5745F6DB04E0FB
:1028D00030205A460B9990476D1CB8F10001A8F1C1
:1028E0000108F5DC05E016F8010B5A460B999047F4
:1028F0006D1CB9F10001A9F10109F4DC641C65E764
:102900000928010013B54FF6FF73012269460248FA
:10291000FFF79DF800981CBDEC030020FDF7D8FEE2
:10292000FFF774FCFFF71AF9FFF766FAFFF7E0F913
:10293000FFF794F9FFF70EFAFFF742FA012291022E
:102940000748FDF7B2FEFFF7A5FB0122054906483F
:10295000FFF76EF8FFF7CEF800F015F8FEE700007D
:102960000004024098000020A4030020014600203B
:10297000842900D0C81C704710B500B9012000F0B0
:1029800023FB002010BD10B500F044FB002010BD5B
:102990007FB50D4604464169B0F9080081B1A169CF
:1029A00071B1FFF7E3FFD4E905128DE80700D4E920
:1029B00000102B46226900F040FC039004B070BD6B
:1029C000FFF7D4FF03A9CDE90001208A2B4682B28C
:1029D000D4E9001000F004FC012801D00020EDE74C
:1029E0000398EBE72DE9F041184C0F460546E668E1
:1029F0002068001D00F020FA38B9206890F82C10EB
:102A000001208840216981432161681C07D137B1C9
:102A10002168BDE8F0410E48091D00F051BA206858
:102A20003544B5424560216805D2A06BBDE8F04150
:102A3000091D00F02DBA606B091D00F029FAA06A8B
:102A4000854200D2A562BDE8F08100002000002090
:102A5000580500202DE9F041054600F03DFA2E4CC6
:102A6000A068401CA06020682C4F10B1606940B382
:102A70002DE02560A068012829D1002606EB8600FC
:102A800007EB800000F0F6F9761C072EF6D32348FA
:102A90008C3000F0EFF92148A03000F0EBF91F482E
:102AA000B43000F0E7F91D48C83000F0E3F91B48E6
:102AB000DC3000F0DFF919488C3060631430A0631B
:102AC00005E02068E96AC06A884200D82560606A2B
:102AD000401C6062E96A012022698840104320613D
:102AE00001EB810007EB8000291D00F0E9F900F0FF
:102AF00013FA606900280CD02068E96AC06A88422D
:102B000007D207494FF080500860BFF34F8FBFF3E3
:102B10006F8FBDE8F0810000200000207C040020C1
:102B200004ED00E010B5044690F8510058B10128BA
:102B30000CD002280FD0502080F31188BFF34F8FA4
:102B4000BFF36F8FFEE7206B00F0FAF92046BDE877
:102B5000104000F0F5B910BD10484FF47051420715
:102B600006D0C01D0D4920F00700411AC1F5705173
:102B70000B4A00230144C2E900030839183A21F046
:102B8000070111604B600B600B1AC0E900139360E2
:102B90004FF0004053605061704700006C0500200A
:102BA00074000020144E154CA6F1C8074FF0805851
:102BB000DFF84C9012E000BF00F08EF9F068C568B5
:102BC000281D00F039F9A068401EA0606068401E12
:102BD000606000F0A1F92846FFF7A4FF60680028B4
:102BE000EAD138680128F9D9C9F80080BFF34F8FBE
:102BF000BFF36F8FF2E700004405002020000020A3
:102C000004ED00E02DE9F0479A46DDE909848146AC
:102C10006FF00303206B03EB82021044089E20F048
:102C20000707780707D0502080F31188BFF34F8F34
:102C3000BFF36F8FFEE7002561B1002023180A5C07
:102C400083F834200A5C12B1401C1028F6D384F8B3
:102C5000435001E084F83450072E00D30626E66284
:102C6000C4E91165201D00F010F904F1180000F00E
:102C70000CF92461C6F107006462A061E56484F880
:102C8000505052464946384600F0C0F82060B8F12E
:102C9000000F01D0C8F80040BDE8F08730B51149F9
:102CA00000E011460A688242FBD34B685C188442FC
:102CB00003D1406818444860084643681C18944291
:102CC00009D1084C183C2468A24209D052681A4421
:102CD00042600A6812680260814200D0086030BD1C
:102CE0000460F9E7740000200648416B096829B1C7
:102CF000416BC968C9684968816270474FF0FF310C
:102D0000FAE700002000002008484068401C4FF00F
:102D1000500080F3118804D0BFF34F8FBFF36F8F43
:102D2000FEE7BFF34F8FBFF36F8FFEE77C000020FD
:102D30002DE9F0410546002700F0A2F9324E306837
:102D400008B9FFF709FF706905424ED1C5B30835D0
:102D500068070ED005F00700C0F1080005446807B9
:102D600007D0502080F31188BFF34F8FBFF36F8FD0
:102D7000FEE72DB37068854237D8234818300146E6
:102D80000C6801E020460C466168A94202D2216825
:102D90000029F7D131688C4227D00768216801608B
:102DA00060680837411B10290FD96019420708D005
:102DB000502080F31188BFF34F8FBFF36F8FFEE772
:102DC00013E041606560FFF769FF61687068401A51
:102DD0007060B268904200D2B06070690143002018
:102DE000C4E90001F068401CF06000F0B7FA780711
:102DF00007D0502080F31188BFF34F8FBFF36F8F40
:102E0000FEE73846BDE8F0815C00002010B5031FE6
:102E10004FF080741C601B1F21F001011960191F05
:102E2000044B0B6014390A60091F6FF0020244382A
:102E30000A6010BD092D0008D0E9013201699A60CD
:102E4000D0E901235A604A68824201D182684A600F
:102E5000002202610868401E086008687047000090
:102E6000034B036003F1540008608020106070473A
:102E7000A000002000F108014FF0FF32C0E901126C
:102E8000C16001610021016070470021016170474C
:102E900030B50B685A1C02D000F1080202E002694A
:102EA00004E02246546825689D42FAD953684B6075
:102EB00099608A60516008610168491C016030BDF9
:102EC00042684A6093688B609368596091600861BA
:102ED0000168491C01607047502080F31188BFF3DE
:102EE0004F8FBFF36F8F0A494868401C4860012824
:102EF0000CD10848006810F0FF0F07D0502080F375
:102F00001188BFF34F8FBFF36F8FFEE7704700004C
:102F10007C00002004ED00E00849486828B1401E0C
:102F2000486001D180F311887047502080F31188E8
:102F3000BFF34F8FBFF36F8FFEE700007C000020D0
:102F400070B500282AD0164DA0F1080460686969A0
:102F5000084207D1502080F31188BFF34F8FBFF391
:102F60006F8FFEE722683AB1502080F31188BFF3DB
:102F70004F8FBFF36F8FFEE78843606000F080F8EB
:102F800060686968084468602046FFF787FE286922
:102F9000401C2861BDE8704000F0E0B970BD000041
:102FA0005C0000204FF0E0200021016181610549B3
:102FB0004FF47A720968B1FBF2F1491E41610721B1
:102FC000016170471C00002010B5020014D00F48AA
:102FD000006B38B1502080F31188BFF34F8FBFF3DF
:102FE0006F8FFEE700F04CF800211046FFF7FAFC67
:102FF00000F0B4F9002807D105494FF0805008606F
:10300000BFF34F8FBFF36F8F10BD00002000002073
:1030100004ED00E010B586B00024039405AA04A9CD
:1030200003A80494FFF71CFFDDE903010094CDE938
:10303000011000230EA11048059A00F0FEF80F4978
:103040000028C86211D0502080F31188BFF34F8F41
:10305000BFF36F8F4FF0FF30886201204861CC6072
:1030600006B0BDE8104000F041B806B010BD000049
:1030700049444C4500000000A52B0008200000201A
:103080000248016B491C01637047000020000020CA
:103090001448016B11B10121C16170470021C16168
:1030A0000169B1FA81F1C1F11F0101EB81020E4901
:1030B00051F822306BB101EB820101F108034A683B
:1030C00052684A609A4201D152684A60D1680160F0
:1030D0007047502080F31188BFF34F8FBFF36F8F7D
:1030E000FEE70000200000207C0400201CB53748CB
:1030F0000168374A914207D1502080F31188BFF30D
:103100004F8FBFF36F8FFEE700683149491E884239
:1031100007D1502080F31188BFF34F8FBFF36F8F1B
:10312000FEE72C4908780190FF20087008788DF898
:1031300000009DF800009DF8002000F0F000904293
:1031400007D0502080F31188BFF34F8FBFF36F8FEC
:10315000FEE79DF80000204C00F050002070072092
:10316000A06005E09DF8002052008DF80020401E70
:103170009DF800201206F5D4A060032807D0502047
:1031800080F31188BFF34F8FBFF36F8FFEE74FF4CB
:103190004070A060019808700C482030016841F42C
:1031A00070010160016841F070410160FFF7FAFEB3
:1031B00000206060FDF718F80848016841F04041C0
:1031C0000160FCF7FDFF00201CBD000000ED00E0E9
:1031D00071C20F4100E400E07C00002034EF00E009
:1031E0002DE9FF5F8346DDE90E87994616468A463C
:1031F0009000FFF79DFD05001CD05420FFF798FDBF
:10320000040014D00020256384F85100CDE9024069
:10321000CDE900874B46324651465846FFF7F2FC4F
:103220002046FFF717FC012004B0BDE8F09F2846B8
:10323000FFF786FE4FF0FF30F6E7F0B585B0DDE929
:103240000B640A9DA6B1DCB15427009726630226C1
:1032500084F85160002604AFCDE90246CDE900575D
:10326000FFF7D0FC2046FFF7F5FB049805B0F0BD52
:10327000502080F31188BFF34F8FBFF36F8FFEE7AD
:10328000502080F31188BFF34F8FBFF36F8FFEE79D
:103290002DE9F0412F4C0026206B28B1A069401C7D
:1032A000A0613046BDE8F081E5686D1CE56013D192
:1032B000606B006838B1502080F31188BFF34F8FE6
:1032C000BFF36F8FFEE7606BA16B6163A063206A41
:1032D000401C2062FFF708FDA06ADFF87C80854271
:1032E00009D3606B0068A0B1606BC068C76878687C
:1032F000854211D2A0622068C06A00EB800158F8B4
:103300002100012800D90126E0690028C9D0012642
:10331000C7E74FF0FF30EDE7381DFFF78DFDB86AC6
:1033200018B107F11800FFF787FDF96A012022693B
:1033300088401043206101EB810108EB8100391DB9
:10334000FFF7BEFDF86A2168C96A8842C9D3012621
:10335000C7E70000200000207C0400202DE9F04792
:103360002C4D00242746286B38B1FFF7B5FD286B9C
:10337000401E2863286B40B146E0502080F311883E
:10338000BFF34F8FBFF36F8FFEE7A968224E012076
:10339000D1B3A6F1B40980463068E8B1F068C468DA
:1033A00004F11800FFF748FD201DFFF745FDE06A16
:1033B0002A6908FA00F11143296100EB800109EB49
:1033C0008100211DFFF77CFDE06A2968C96A8842F7
:1033D000E2D3C5F81C80DFE70CB1FFF785FCAC69D0
:1033E00044B14646FFF754FF00B1EE61641EF9D1C7
:1033F0000020A861E86938B108490127380708604A
:10340000BFF34F8FBFF36F8FFFF786FD3846BDE8E0
:10341000F0870000200000203005002004ED00E0CF
:10342000A836000895210008FFFF000000000000FA
:10343000800000000000000000000000B43600081A
:10344000D121000800000000000000008000000002
:103450000000000000000000C03600088B210008BA
:10346000FFFF0000000000008000000000000000DE
:1034700000000000CC360008B9210008FFFF000062
:1034800000000000800000000000000000000000BC
:103490000000000000000000010203040607080904
:1034A000000000000102030400C1814001C080410E
:1034B00001C0804100C1814001C0804100C1814004
:1034C00000C1814001C0804101C0804100C18140F4
:1034D00000C1814001C0804100C1814001C08041E4
:1034E00001C0804100C1814001C0804100C18140D4
:1034F00000C1814001C0804100C1814001C08041C4
:1035000001C0804100C1814000C1814001C08041B3
:1035100001C0804100C1814001C0804100C18140A3
:1035200000C1814001C0804101C0804100C1814093
:1035300000C1814001C0804100C1814001C0804183
:1035400001C0804100C1814000C1814001C0804173
:1035500001C0804100C1814001C0804100C1814063
:1035600000C1814001C0804100C1814001C0804153
:1035700001C0804100C1814001C0804100C1814043
:1035800000C1814001C0804101C0804100C1814033
:1035900000C1814001C0804100C1814001C0804123
:1035A00001C0804100C1814000C0C101C30302C20B
:1035B000C60607C705C5C404CC0C0DCD0FCFCE0E73
:1035C0000ACACB0BC90908C8D81819D91BDBDA1AE3
:1035D0001EDEDF1FDD1D1CDC14D4D515D71716D653
:1035E000D21213D311D1D010F03031F133F3F232C3
:1035F00036F6F737F53534F43CFCFD3DFF3F3EFE33
:10360000FA3A3BFB39F9F83828E8E929EB2B2AEAA2
:10361000EE2E2FEF2DEDEC2CE42425E527E7E62612
:1036200022E2E323E12120E0A06061A163A3A26282
:1036300066A6A767A56564A46CACAD6DAF6F6EAEF2
:10364000AA6A6BAB69A9A86878B8B979BB7B7ABA62
:10365000BE7E7FBF7DBDBC7CB47475B577B7B676D2
:1036600072B2B373B17170B0509091519353529242
:1036700096565797559594549C5C5D9D5F9F9E5EB2
:103680005A9A9B5B99595898884849894B8B8A4A22
:103690004E8E8F4F8D4D4C8C448485458747468692
:1036A00082424383418180404C45445F5461736B47
:1036B000000000005057525F5461736B000000001F
:1036C000424F4F545F5461736B0000004D6F646252
:1036D00075735F5461736B00F836000800000020BA
:1036E000A00000009027000898370008A0000020E4
:1036F000B8450000A02700080000000000000000FE
:1037000000000000000000000100000010000000A8
:10371000000000000024F400000000000000000091
:103720000000000000000000000000000000000099
:103730000000000000000000000000000000000089
:103740000000000000000000000000000000000079
:103750000000000000000000000000000000000069
:103760000000000000000000000000000000000059
:103770000000000000000000AAAAAAAA00000000A1
:103780000100020003000400050006000700080015
:08379000000000000000000031
:040000050800018965
:00000001FF
