:020000040800F2
:10000000804600206102000859240008391E0008BB
:10001000D921000891030008312D000800000000DC
:10002000000000000000000000000000A101000826
:100030009303000800000000FD010008F5270008F8
:100040007B0200087B0200087B0200087B0200089C
:100050007B0200087B0200087B0200087B0200088C
:100060007B0200087B0200087B0200087B0200087C
:100070007B0200087B0200087B0200087B0200086C
:100080007B0200087B0200087B0200087B0200085C
:100090007B0200087B0200087B0200087B0200084C
:1000A0007B0200087B0200087B0200087B0200083C
:1000B000C5280008D12800087B0200087B02000840
:1000C0007B0200087B0200087B0200087B0200081C
:1000D0007B020008CD2C00087B0200087B02000890
:1000E0007B0200087B0200087B0200087B020008FC
:1000F0007B0200087B0200087B0200087B020008EC
:100100007B0200087B0200087B0200087B020008DB
:100110007B0200087B0200087B020008DD28000843
:100120007B0200087B0200087B0200087B020008BB
:100130007B0200087B0200087B0200087B020008AB
:100140007B0200087B0200087B0200087B0200089B
:100150007B0200087B0200087B020008252D0008B6
:100160007B0200087B0200087B0200087B0200087B
:100170007B0200087B0200087B02000800000000F0
:100180007B0200087B020008DFF810D000F0EEF8D8
:1001900000480047CD2D0008AFF3008080460020C6
:1001A0002C4B19680868B0E8F04F80F30988BFF35A
:1001B0006F8F4FF0000080F311887047000000003F
:1001C00008480068006880F308884FF0000080F35A
:1001D000148862B661B6BFF34F8FBFF36F8F00DF35
:1001E00000BF00BF08ED00E0DFF80C00016841F43B
:1001F00070010160704700BF88ED00E0EFF30980F7
:10020000BFF36F8F134B1A681EF0100F08BF20ED5D
:10021000108A20E9F04F106009B44FF0500080F3CD
:100220001188BFF34F8FBFF36F8F03F07FF94FF04B
:10023000000080F3118809BC19680868B0E8F04F25
:100240001EF0100F08BFB0EC108A80F30988BFF3CE
:100250006F8F704728000020EFF305807047000083
:100260000648804706480047FEE7FEE7FEE7FEE750
:10027000FEE7FEE7FEE7FEE7FEE7FEE7B52800083B
:10028000890100082DE9F05F0546002092469B4653
:1002900088460646814640241BE02846414647469C
:1002A000224600F053F853465A46C01A914110D3E3
:1002B00011461846224600F03AF82D1A67EB01085D
:1002C0004F4622460120002100F031F817EB0009CB
:1002D0004E41201EA4F10104DFDC484631462A4687
:1002E0004346BDE8F09F40EA01039B0703D009E0C5
:1002F00008C9121F08C0042AFAD203E011F8013B12
:1003000000F8013B521EF9D27047D2B201E000F86A
:10031000012B491EFBD270470022F6E710B51346A9
:100320000A4604461946FFF7F0FF204610BD202A72
:1003300004DB203A00FA02F1002070479140C2F13C
:10034000200320FA03F3194390407047202A04DB6E
:10035000203A21FA02F00021704721FA02F3D0403E
:10036000C2F120029140084319467047064C074DE0
:1003700006E0E06840F0010394E807009847103475
:10038000AC42F6D3FFF704FFC03B0008E03B000897
:10039000FEE7704772B6FEE7002229B101291AD0A4
:1003A00002291BD04FF440720E490B6823F44073AE
:1003B0000B600B6813430B600A6822F0F8020A60B6
:1003C0000A68022303EBC00002430A60086840F495
:1003D0008030086070474FF48072E5E74FF4007298
:1003E000E2E70000103C02401348016889050FD580
:1003F000016821F400710160016841F4006101604D
:10040000016821F400610160016841F4007101603C
:10041000016849050FD5016821F480610160016818
:1004200041F480510160016821F48051016001684C
:1004300041F4806101607047003C024008490A684D
:1004400022F440720A600A6842F004020A600A68F4
:100450004FF4803343EA002002430A6070470000F3
:10046000103C0240064A136823F44073136013687B
:100470001360136843F001031360017070470000BC
:10048000103C0240094910B50C6824F440740C601B
:100490000C6844F440740C600C6844F001040C6077
:1004A0000260BFF36F8F436010BD0000103C02403C
:1004B000074A136823F440731360136843F480738E
:1004C0001360136843F0010313600180704700005C
:1004D000103C0240074A136823F44073136013680A
:1004E00043F400731360136843F001031360016069
:1004F00070470000103C024017490868C2061748C0
:1005000005D5C26942F01002C26110220A600A6871
:10051000920605D5C26942F00802C26120220A6033
:100520000A68520605D5C26942F00402C26140223F
:100530000A600A68120605D5C26942F00202C26169
:1005400080220A600A68920705D5C26942F020023B
:10055000C2610220086070470C3C02408004002009
:1005600070B5114904460020C86100F043FA064600
:100570000E4D09E0601C07D024B100F03BFA801B4F
:10058000A04201D9032070BD2868C003F2D42868B6
:10059000C00701D001202860286810F0F200F2D0D6
:1005A000FFF7AAFF012070BD800400200C3C024030
:1005B0002DE9F0410446876D00F01CFA064694F8D8
:1005C00035000025022806D08020606584F834506C
:1005D0000120BDE8F0812068016821F0160101606A
:1005E0002068416921F080014161206C08B9A06C4C
:1005F00020B12068016821F00801016020680168CD
:1006000021F0010101600CE000F0F4F9801B0528E5
:1006100007D920206065032084F8350084F8345021
:10062000D7E720680068C007EED194F85C103F203F
:100630008840B860012084F8350084F834500020E8
:10064000C7E790F83510022903D0802141650120C9
:100650007047052180F835100068016821F001011C
:10066000016000207047000070B5044600F0C2F938
:100670000546601C02D004480078044400F0BAF932
:10068000401BA042FAD370BD180000202DE9F047AE
:10069000044622480F46017E01290AD001218046E6
:1006A00001764CF250394846FFF75AFF020003D05A
:1006B0002FE00220BDE8F0874FF0FF30386020685F
:1006C000174D012801D0A6681CE0207C6168FFF767
:1006D000B5FE4846FFF744FF0246286820F00400B4
:1006E000286014E0217C3046FFF756FE4846FFF7AD
:1006F00037FF0200286820F0FA00286001D03E6031
:1007000005E0761CD4E902100844B042EAD8FFF7AD
:100710006BFE002188F818101046CBE780040020FB
:10072000103C02400348016841F000410160002094
:1007300070470000103C02402DE9F0471B4E054673
:100740001446307E1F468946012808D001203076A5
:100750004CF250384046FFF703FF18B114E0022076
:10076000BDE8F0879DB1012D16D0022D19D022468B
:100770003B464846FFF786FE4046FFF7F1FE0C4930
:100780000A6822F001020A6000213176E8E7E1B24E
:100790004846FFF767FEEFE7A1B24846FFF788FE3D
:1007A000EAE721464846FFF795FEE5E7800400208A
:1007B000103C0240074900200A68002A09DA054A6D
:1007C000054B0C3A1360054B13600968002900DAE9
:1007D00001207047103C024023016745AB89EFCDF3
:1007E0002DE9F84FDFF8BCA10022012503264FF0C8
:1007F0000F090AF1040BAAF1040E00BF0B6805FAF9
:1008000002F42340A34270D10F7907F00307012FB0
:1008100001D0022F16D187684FEA420806FA08FC79
:1008200027EA0C07D1F80CC00CFA08FC4CEA070CBC
:10083000C0F808C04768A7430C79C4F3001494407B
:100840003C4344600C79E443A4070AD0C4684FEAEF
:10085000420C06FA0CF7BC438F6807FA0CF72743E3
:10086000C7600C7904F00304022C12D1D40800EB09
:10087000840CDCF820405707FF0E09FA07F824EA39
:100880000804D1F8108008FA07F848EA0408CCF800
:10089000208004684FEA420C06FA0CF7BC430F793B
:1008A00007F0030707FA0CF7274307604C6814F4B6
:1008B000403F70D03C4C276847F48047276024684D
:1008C00022F0030704F480440094384C07EB040C36
:1008D000DCF8084897074FEA177809FA08F7BC438D
:1008E000334FB84202D1002724E054E0314FB842E0
:1008F00001D101271EE0304FB84201D1022719E093
:100900002E4FB84201D1032714E02D4FB84201D138
:1009100004270FE02B4FB84201D105270AE02A4FE8
:10092000B84201D1062705E0284FB84201D1072778
:1009300000E0082707FA08F72743CCF80878DAF828
:1009400000405746D1F804C09C435FEACC2C00D548
:100950001C433C60DBF800405F46D1F804C09C4378
:100960005FEA8C2C00D51C433C60DEF800407746E3
:10097000D1F804C09C435FEA8C3C00D51C433C602A
:10098000084F083F3C68D1F804C09C435FEACC3C68
:1009900000D51C433C60521C102AFFF42FAFBDE869
:1009A000F88F0000083C014044380240003001400C
:1009B000000002400004024000080240000C024017
:1009C000001002400014024000180240001C0240C7
:1009D0000069084000D001207047426921EA020303
:1009E0000A4043EA0241816170470AB18161704760
:1009F0000904FBE7014880687047000018000020E8
:100A00000248816802781144816070471800002014
:100A10000B4810B5016841F400710160016841F4B0
:100A200080610160016841F480710160032000F081
:100A30009FF80F2000F006F800F050F8002010BDDD
:100A4000003C024030B505461F4887B000240168CD
:100A500041F020010160006806A900F0200000902C
:100A600001A800F0E1F90498A8B100F0FDF94000F8
:100A70001649174AB0FBF1F11648491E026040F2D0
:100A8000E732C0E90324C0E90114846100F0D8FD15
:100A9000040003D015E000F0E7F9E9E70D4800F0A5
:100AA0002DFE04000DD1372000F034F8102D07D2B0
:100AB00000222946372000F03BF80748056000E097
:100AC000012407B0204630BD4038024040420F00AC
:100AD00000140040380400201C0000200C4882B0A4
:100AE000016841F480410160006800F4804000909A
:100AF0000748001F016841F0805101600068002232
:100B000000F0805000900F21901E02B000F010B84D
:100B100044380240002809DB00F01F020121914007
:100B20004009800000F1E020C0F80011704700008B
:100B3000F0B40E4B1B680C46C3F30223C3F1070548
:100B4000042D00D90425191D072901D2002300E036
:100B5000DB1E012606FA05F1491E214099409E4000
:100B6000761E16403143F0BC02F010B90CED00E0E7
:100B7000064900F0070208684FF6FF03184040EAF4
:100B80000220034A10430860704700000CED00E0AB
:100B90000000FA05BFF34F8F05480168054A01F4CC
:100BA000E06111430160BFF34F8F00BFFDE700001C
:100BB0000CED00E00400FA052DE9F8430546006855
:100BC0004FF00109C1074FF0000601D1400727D5BA
:100BD000DFF80C81C8F86860FFF70CFF0746414C4E
:100BE00005E000BFFFF706FFC01B022857D82068AA
:100BF0000001F7D468688101287A41EA0070394918
:100C000084310860C8F86890FFF7F4FE074604E0F6
:100C1000FFF7F0FEC01B022841D820680001F7D57D
:100C20002878800752D52F484030016841F0805124
:100C3000016000682C4C00F080500090206840F467
:100C400080702060FFF7D6FE074604E0FFF7D2FE73
:100C5000C01B022823D82068C005F7D5214C70346A
:100C6000206810F4407020D0A98901F440718142BD
:100C70001BD020681D4920F44070C1F800900E6020
:100C800020602068C00710D0FFF7B4FE064641F28E
:100C9000883707E0FFF7AEFE801BB84202D9032079
:100CA000BDE8F88320688007F4D5E9680D48C1F3F2
:100CB00001220830032A0BD0016821F4F8110160E9
:100CC0002068A989C1F30B01084320600020E7E7F1
:100CD0000268074B22F4F81219400A430260EFE75A
:100CE000000047420038024000700040400E47427A
:100CF000FFFCFF0F2DE9F0470E46050065D0DFF839
:100D00001481D8F80000F7B200F00700B04207D213
:100D100088F80070D8F8000000F00700B04254D105
:100D200028683D4C810712D5400703D5206840F460
:100D3000E05020602878000703D5206840F4604028
:100D400020602068A96820F0F0000843206028781F
:100D5000C0072DD0304968680839012812D0022810
:100D600013D0032811D00968890700292DDA2168DA
:100D700021F0030101432160FFF73CFE814641F26F
:100D8000883A0EE009688903EFE709688901ECE712
:100D9000FFF730FEA0EB0901514502D90320BDE861
:100DA000F0872068696800F00C00B0EB810FEFD18C
:100DB000D8F80010404601F00701B14207D907708A
:100DC000006800F00700B04201D00120E7E7287872
:100DD000400705D52068E96820F4E050084320600A
:100DE0002878000706D52068296920F4604040EA89
:100DF000C100206000F058F82168084AC1F30311CF
:100E0000515CC8400649086006480068FFF71AFEB2
:100E10000020C4E7003C0240083802406439000862
:100E2000240000201C0000200F2202600C4A1368DE
:100E300003F003034360136803F0F0038360136857
:100E400003F4E053C36012684FF4E05303EAD202A4
:100E500002610448006800F0070008607047000065
:100E600008380240003C024004480549006809680F
:100E7000044AC1F38221515CC8407047240000201D
:100E800008380240743900080448054900680968B8
:100E9000044AC1F34231515CC8407047240000202D
:100EA0000838024074390008154810B5006810F081
:100EB0000C02144813D04110042A0FD0082A0ED176
:100EC0000F4C241F2268236802F03F025B0207D503
:100ED0002068C0F38810A0FB010106E0084610BDA1
:100EE0002168C1F38811A1FB00010023FFF7CAF9B3
:100EF0002168C1F30141491C4900B0FBF1F010BD6C
:100F0000083802400024F4002DE9F84F04006ED0A8
:100F10002078DFF84C93C007A9F104054AD009F105
:100F200004000168C1F38101012908D00068C0F301
:100F3000810002280AD1D9F80000400206D52868AD
:100F4000800337D560680028E1D033E06068B0F5F1
:100F5000803F10D0B0F5A02F286810D020F480304A
:100F60002860286820F4802028606068A8B1FFF716
:100F700041FD06460DE0286840F48030F4E740F477
:100F800080202860F7E700BFFFF734FD801B64284E
:100F900073D828688003F7D50CE0FFF72BFD0646D1
:100FA00005E000BFFFF726FD801B6428F0D8286805
:100FB0008003F7D42078DFF8AC8280074FF0000A76
:100FC0003ED5A748001D016811F00C0F08D000683D
:100FD000C0F3810002280BD1D9F80000400207D4E9
:100FE0002868800716D5E068012800D112E033E1B7
:100FF000E068B8B10120C8F80000FFF7FBFC064626
:1010000005E000BFFFF7F6FC801B0228C0D8286867
:101010008007F7D52868216920F0F80040EAC10070
:1010200028600DE0C8F800A0FFF7E4FC064604E0E5
:10103000FFF7E0FC801B02281FD828688007F7D440
:101040002078000722D5864F87486169703771B1D3
:1010500001210160FFF7CEFC064604E0FFF7CAFC61
:10106000801B022809D838688007F7D50EE0C0F841
:1010700000A0FFF7BFFC064605E082E0FFF7BAFCE0
:10108000801B02287DD838688007F7D42078400775
:1010900068D5DFF8CCB100270BF13C0BDBF8000082
:1010A000C0000BD4DBF8001041F08051CBF80010E9
:1010B000DBF80000012700F0805000906B4E306894
:1010C000C00510D4306840F480703060FFF792FCA7
:1010D000009005E0FFF78EFC0099401A022850D8D6
:1010E0003068C005F6D55E4EA0686C3601280FD07A
:1010F0000528306810D020F001003060306820F002
:1011000004003060A068B8B1FFF774FC00900FE0F5
:10111000306840F00100F4E740F004003060F7E789
:10112000FFF768FC0099411A41F28830814266D885
:1011300030688007F4D50EE0FFF75CFC009007E014
:10114000FFF758FC0099411A41F28830814256D885
:1011500030688007F4D42FB1DBF8001021F0805103
:10116000CBF80010A069C8B33D49091D0968C1F357
:10117000810102294AD00228504607D0C8F86000F1
:1011800000E03CE0FFF736FC04463BE04746C8F889
:101190006000FFF72FFC064605E000BFFFF72AFCC2
:1011A000801B02282BD828688001F7D4D4E90701D6
:1011B0000843A16A2E4A490802EB0141626A41EAEA
:1011C0008211084394F82C1040EA0161C9F800101C
:1011D00001203866FFF70EFC044606E03EE000BF43
:1011E000FFF708FC001B022809D828688001F7D502
:1011F00034E000BFFFF7FEFB001B022802D90320EA
:10120000BDE8F88F28688001F4D427E00128F7D0E2
:10121000D9F80000E26900F4800191421CD1226AF1
:1012200000F03F01914217D147F6C071626A014058
:10123000B1EB821F10D1A26A4FF0FF3300F44031AE
:1012400003EB5202B1EB024F06D194F82C1000F0E0
:101250007060B0EB016F01D00120D1E70020CFE733
:101260000438024000004742800E474200700040B0
:101270000000FFFF2DE9F74F0446007F9346012849
:101280001BD04FF0010884F81C8002206077216891
:10129000CA204862206853214162206880684FF06C
:1012A000000540054FF0FF064FF0030A4FF47A792E
:1012B0000FD5FFF79FFB074607E00220BDE8FE8F32
:1012C000FFF798FBC01B484519D82068C068400745
:1012D000F6D42068816821F4806181602068C1684B
:1012E00001F0800161F49061C160FFF783FB074664
:1012F0000CE000BFFFF77EFBC01B484506D9206805
:10130000466284F81DA025770320D7E72068C068CF
:101310004007EFD52068816821F0070181602068CF
:10132000816841EA0B018160216801984861206869
:10133000816841F4806181602068466284F81D8084
:1013400025770020BAE7000010B5040002D0607FC6
:1013500010B106E0012010BD00202077204600F0EB
:1013600041F8022060772068C168C943C90632D5B8
:10137000CA214162216853204862204601F098F852
:1013800020BB20688168164A114081602168886806
:1013900062681043D4E904231A431043886021682B
:1013A000E068086120680169228941EA024101611F
:1013B000204601F0A1F848B921680A6C22F4802285
:1013C0000A6421680A6CA3691A430A642268FF212F
:1013D000516208B110BD00200121617710BD0000ED
:1013E000BFFF8FFF1FB50021009101910291039172
:1013F0000068084988420CD1022000900002039046
:101400006846FFF7D9FB08B1FEF7C4FF0249012087
:1014100008601FBD002800403C0E474270B50446DE
:10142000007F0B46012819D001262677022060771D
:10143000B2B19878D97840EA014558781978000215
:1014400040EA413005432168CA20486221685320A0
:101450004862204601F02CF8D0B122E0022070BD95
:101460005878C10603D500F0EF000A305870D878DC
:1014700001F012F80204587801F00EF842EA002256
:10148000987801F009F80243187842EA4035DAE723
:101490000748054020684560204601F02DF800B956
:1014A00066772268FF2151620021217770BD00001C
:1014B0003FFFFF002DE9F0410446007F0D46012863
:1014C00023D04FF0010884F81C8002206077206848
:1014D000002780684FEA4060D2B1002800DBEF703F
:1014E000A878297840EA01466878E978000240EA5D
:1014F000815006432168CA2048622168532048620F
:10150000204600F0D5FFB8B12CE00220BDE8F08104
:10151000002800DBEF70287800F0BEFF0204687836
:1015200000F0BAFF42EA0022A87800F0B5FF0243BB
:10153000E87842EA8056DDE70D48064020680660FC
:101540002068816821F480218160D5E90301084386
:1015500021688A6810438860204600F0CDFF08B9F2
:1015600084F81D802268FF2151622777CEE70000B2
:101570007F7F7F0070B504460B482168C860FFF785
:1015800039FA05464FF47A7607E000BFFFF732FAE2
:10159000401BB04201D9032070BD2068C06880069E
:1015A000F4D5002070BD00005F7F010070477047D8
:1015B00070B590F83C20012A32D0012480F83C40DC
:1015C000022280F83D2003685A689D6822F0700668
:1015D0000A6832435A60134B02689A4214D0B2F13F
:1015E000804F11D0104B9A420ED0104B9A420BD024
:1015F0000F4B9A4208D00F4B9A4205D00E4B9A429D
:1016000002D00E4B9A4204D1496825F08003194359
:10161000916080F83D40002180F83C10084670BD84
:10162000022070BD0000014000040040000800409E
:10163000000C004000040140004001400018004040
:1016400010B5040003D094F83D0010B107E001206C
:1016500010BD002084F83C00204600F01FF8022056
:1016600084F83D00211D206801F03EF9012084F836
:10167000460084F83E0084F83F0084F8400084F877
:10168000410084F8420084F8430084F8440084F860
:10169000450084F83D00002010BD000008B5016839
:1016A0001448B1F1804F14D0134A914220D10168FF
:1016B00041F0020101600068002200F00200009089
:1016C00005211D20FFF734FA1D20BDE80840FFF773
:1016D00021BA016841F0010101600068002200F0B8
:1016E0000100009005211C20FFF722FA1C20ECE7E6
:1016F00008BD0000403802400004004090F83D1052
:10170000012901D001207047022180F83D100168B5
:10171000CA6842F00102CA6000681149884214D0C8
:10172000B0F1804F11D00F4988420ED00E49884247
:101730000BD00E49884208D00D49884205D00D498A
:10174000884202D00C49884204D1816801F0070127
:10175000062903D0016841F00101016000207047B3
:10176000000001400004004000080040000C004060
:1017700000040140004001400018004070B50446DC
:1017800090F83C000025012817D0012684F83C6021
:10179000022084F83D002068826822F0770222F45B
:1017A0007F4282600868502838D00DDC20284FD056
:1017B00005DC90B3102811D14AE0022070BD30281A
:1017C00046D040280AD13BE060282FD070280DD0A9
:1017D000B0F5805F03D0B0F5005F12D0012584F82A
:1017E0003D60002084F83C00284670BDCB68D1E9FC
:1017F0000121206801F0E4F82068816841F0770158
:1018000009E0CB68D1E90121206801F0D9F820680E
:10181000816841F480418160E1E719E0CA68496864
:10182000206801F0DFF85021206806E0CA684968A6
:10183000206801F0E8F86021206801F0CBF8CEE7DD
:10184000CA684968206801F0CDF840212068F4E7B3
:10185000226801461046F0E770472DE9F041044642
:101860000068C66805694FF00007A90713D5B107DE
:1018700011D5F91E01610120207720688069800759
:10188000204602D0FFF7E8FF04E000F07EF8204693
:1018900000F07CF82777680716D5700714D5216803
:1018A0006FF004000861022020772068806910F43E
:1018B000407F204602D0FFF7CFFF04E000F065F83C
:1018C000204600F063F82777280715D5300713D591
:1018D00021686FF008000861042020772068C06943
:1018E0008007204602D0FFF7B7FF04E000F04DF874
:1018F000204600F04BF82777E80616D5F00614D5F9
:1019000021686FF010000861082020772068C06906
:1019100010F4407F204602D0FFF79EFF04E000F065
:1019200034F8204600F032F82777E80708D0F007AF
:1019300006D021686FF001000861204600F028F809
:10194000280608D5300606D521686FF080000861AA
:101950002046FFF72BFE680608D5700606D52168DD
:101960006FF040000861204600F042F8A8060AD552
:10197000B00608D521686FF0200008612046BDE858
:10198000F041FFF714BEBDE8F081704770470000DA
:1019900010B5044600681349884201D1FFF730F8BA
:1019A0001149206888421BD11048012290F8671025
:1019B00061B190F86510491CC9B280F8651008291A
:1019C00004D3002180F8671080F86820D0F8E41074
:1019D000491CC0F8E410B1F57A7F01DD80F8E820F9
:1019E00010BD0000001400400004004090410020A1
:1019F0007047704770470000F8B5016804460868F2
:101A0000CA684B6910F00F0F4FF0000559D003F072
:101A1000010602F49077374365D0C10705D0D105A0
:101A200003D5616C41F001016164410705D5D90717
:101A300003D0616C41F002016164810705D5D907CB
:101A400003D0616C41F004016164010707D502F025
:101A50002001314303D0616C41F008016164616C85
:101A600000293AD0800604D5900602D5204601F020
:101A70000BF820684069616CC0F38010090700D43E
:101A800060B3204600F0D9FF20684069400621D5A8
:101A90002068143050E8001F21F0400140E8001297
:101AA000002AF5D1E06BA8B16E490165E06BFEF745
:101AB000C8FD002811D0E06B016D01B0BDE8F04019
:101AC000084783060FD593060DD52046BDE8F8409C
:101AD00000F0DABF2046FFF78DFFF8BD2046FFF784
:101AE00089FF6564F8BD266B2023012E7DD1C606D3
:101AF0007BD5D60679D508684868009048694FF0CC
:101B00000206400641D5E16B086840680004000CFD
:101B1000E8D0A28D8242E5D9E085C869B0F5807F22
:101B20002DD020680C3050E8001F21F4807140E86F
:101B30000012002AF5D12068143050E8001F21F06F
:101B4000010140E80012002AF5D12068143050E865
:101B5000001F21F0400140E80012002AF5D184F86E
:101B60004230256320680C3050E8001F21F010013E
:101B700040E80012002AF5D1E06BFEF719FD66631C
:101B8000A08DE18D401A81B22AE0A08DE18D401A2E
:101B900081B2E08D0028A5D00029A3D022680C32A4
:101BA00052E8000F20F4907042E80007002FF5D1B2
:101BB0002068143050E8002F22F0010240E800278E
:101BC000002FF5D184F84230256320680C3050E8AE
:101BD000002F22F0100240E80023002BF5D16663AD
:101BE0002046FFF706FFF8BDFFE705062BD51506D3
:101BF00029D594F841002128F5D1A068B0F5805F7F
:101C000001D12069B0B1206A411C216221680078AD
:101C10004860E08C401E0004000CE084E3D12068A2
:101C2000C16821F08001C1602068C16841F04001B5
:101C3000C160D8E7206A0088C0F308004860206AC5
:101C4000801C2062E5E74006CDD55006CBD5CA689A
:101C5000204622F04002CA6084F8413000F0EBF8E0
:101C6000C1E700002B2A000870B5040004D094F8E6
:101C70004100002510B106E0012070BD84F84050FD
:101C8000204600F023F8242084F841002068C16831
:101C900021F40051C160204600F058FF206801691E
:101CA00021F4904101612068416921F02A014161DC
:101CB0002068C16841F40051C1606564202084F847
:101CC000410084F842006563002070BD70B586B0A5
:101CD000044614216846FEF71FFB2A48284E256853
:101CE00000242849143802220323B54220D10D686C
:101CF00045F010050D60096801F0100105910168BB
:101D000041F0010101600068694600F001000590A2
:101D100058028DE815000720CDE903301A48FEF778
:101D20005FFD002205212520FEF702FF252022E08D
:101D3000164EB54221D10D6845F020050D600968A9
:101D400001F020010591016841F004010160006883
:101D5000694600F004000590C0208DE815000820B9
:101D6000CDE903300A48FEF73BFD0022062147205B
:101D7000FEF7DEFE4720FEF7CDFE06B070BD000088
:101D800000100140443802400000024000140140AD
:101D90000008024070472DE9F843044690F84100DE
:101DA000984616460D46202802D00220BDE8F8834A
:101DB00085B17EB100206064212084F84100FEF7E7
:101DC00019FEA6848146E684A0682027B0F5805FCE
:101DD00002D003E00120E9E7206910B12E4600257A
:101DE0000EE000260CE08021204600F035FFA8B967
:101DF000C6B116F8010B21684860E08C401EE084F3
:101E0000E08C4B464FF00002CDF800800028EAD16C
:101E10004FF04001204600F01FFF40B184F84170B0
:101E20000320C3E735F8020BC0F30800E3E784F8AA
:101E300041700020BAE77047FEE7000010B5AAB075
:101E40001C2221496846FEF74EFA0021684600F040
:101E5000EDFF1E4C1C491C2220601C3107A8FEF718
:101E600042FA002107A800F0E1FF174960601C2238
:101E700038310EA8FEF737FA00210EA800F0D6FF81
:101E80001149A0601C22543115A8FEF72CFA00213C
:101E900015A800F0CBFF0C49E0601C2270311CA893
:101EA000FEF721FA00211CA800F0C0FF06492061BE
:101EB0001C228C3123A8FEF716FA002123A800F07B
:101EC000B5FF60612AB010BDBC38000800000020DA
:101ED0002DE9F04F87B014216846FEF71DFA4348FC
:101EE0000026016841F010010160016801F0100155
:101EF0000591016841F080010160016801F08001F5
:101F00000591016841F002010160016801F00201E0
:101F10000591016841F004010160016801F00401CC
:101F20000591016841F001010160016801F00101C2
:101F30000591016841F0080101600068DFF8B09088
:101F400000F008000590002220214846FEF74DFDD4
:101F50004FF44067012239464846FEF746FDDFF858
:101F600094A04FF48068002241465046FEF73DFDA4
:101F7000DFF884B0012203215846FEF736FD202009
:101F8000012402258DE83100694648460395FEF795
:101F900027FCCDE9007469464846CDE90245FEF7C5
:101FA0001FFCCDF80080CDE90145694650460395F8
:101FB000FEF716FCE002CDE90006694602945046A1
:101FC000FEF70EFC0320CDE9000469465846CDE932
:101FD0000245FEF705FC1820CDE90006694602948B
:101FE0005846FEF7FDFB07B0BDE8F08F30380240E1
:101FF0000010024000040240000C024010B586B000
:1020000014216846FEF788F9204800241E490594EB
:10201000C0E900147F218160FF21C0E903144461FD
:102020008461FFF791F908B1FEF7B4F98DF800402B
:102030008DF801408DF8024003940122694613484F
:102040000494FFF737FA08B1FEF7A4F901208DF8E0
:1020500014008DF8150012208DF816008DF8174029
:10206000012205A90948FFF7D9F908B1FEF792F94D
:10207000002211460548FFF7FDF8002801D0FEF7C1
:1020800089F906B010BD000000280040F8020020C9
:1020900010B586B00024164800940194029403946D
:1020A00004944FF08041059401604721C0E9011478
:1020B00040F2D661C0E903148461FFF7C1FA08B1A8
:1020C000FEF768F94FF48050009069460848FFF722
:1020D00055FB08B1FEF75EF9049404A90448059481
:1020E000FFF766FA002801D0FEF754F906B010BDDC
:1020F0001803002010B586B00024184800940194FD
:102100000294039404941449059401604721C0E9A2
:10211000011440F2E731C0E9031480218161FFF727
:102120008FFA08B1FEF736F94FF4805000906946F7
:102130000A48FFF723FB08B1FEF72CF9049404A921
:1021400006480594FFF734FA08B1FEF723F903486F
:10215000FFF7D4FA06B010BD000400406003002071
:1021600010B50E4C0C480C2120604FF4E13060603B
:102170000020A060E060C4E90401A061E0612046A5
:10218000FFF772FD08B1FEF705F92068C16841F05C
:102190002001C16010BD000000100140A803002014
:1021A0000C4810B50A4901604FF4E131416000214B
:1021B00081600C22C160C0E904128161C161FFF736
:1021C00053FD002803D0BDE81040FEF7E3B810BD72
:1021D00000140140F0030020FEE7000070B5094D37
:1021E000FF22134605F5807606E000BF10F8014B8C
:1021F00054402A5D5A40335D491E89B2F6D243EA03
:10220000022070BD7C39000810B51A4C94F86800A3
:1022100000282ED094F86600801E81B2601CFFF763
:10222000DDFF94F86610621E635C895C03EB01219C
:1022300089B2884219D160782178884215D1A07876
:10224000112812D2DFE800F01111110911110C113F
:1022500011111111111111110F0000F059F804E0C2
:1022600000F0A6F801E000F007F8002004F8660F7F
:10227000A07010BD904100202DE9F0472249DFF801
:102280008CC089460D79CB788A7905EB03204E798D
:1022900084B202EB062087B200200CE009EB40017B
:1022A00091F80980097A08EB012104EB0008401C31
:1022B0002CF8181080B2B842F0D399F8010089F8D0
:1022C000690099F8020089F86A0089F86B3089F88A
:1022D0006C500D4889F86D6089F86E2006216930D0
:1022E00009F15104FFF77AFF010AA177E077002591
:1022F000513C601990F8690000F0A4F86D1CADB273
:10230000082DF6D3BDE8F087904100209000002012
:102310002DE9F041244D0324244F2879E97800EB7E
:10232000012086B2A879697900EB012082B2287871
:1023300085F869002946032081F86A00500081F879
:102340006B00002010E0311805EB040C37F8113059
:10235000641C190A8CF86910E1B26C18491C84F8E5
:102360006930401CCCB2C0B29042ECD30E4821463A
:102370006930FFF733FF2A19010A82F86910641CDB
:10238000E1B26A18491C82F86900CEB2002406E066
:10239000281990F8690000F055F8641CE4B2B442C2
:1023A000F6D3BDE8F08100009041002090000020AD
:1023B00070B51C4C23462079E178254600EB0120BE
:1023C00082B2A079617900EB0120174921F812004F
:1023D000217884F86910062183F86A10130A85F8B9
:1023E0006B30234683F86C20020A83F86D201A466E
:1023F00082F86E0002F16900FFF7F0FE2246010A42
:1024000082F86F101146082681F8700000256019C7
:1024100090F8690000F016F86D1CADB2B542F6D325
:1024200070BD000090410020900000200448012170
:102430000022017080F8672080F8E11070470000EA
:102440009041002001B5FF23012269460148FFF7B2
:10245000A2FC08BDA8030020FEE7000070B50D4DEA
:102460004FF4006421462846FEF7B2FA002810D146
:102470003220FEF7F9F821462846FEF7A9FA00288F
:10248000F9D02846BDE8704000224FF48061FEF785
:10249000ACBA70BD00040240002102E00A38C0B2AC
:1024A000491C0A28FAD2090740EA11607047000067
:1024B0002DE9F041044600680025C168490618D49A
:1024C000C16841F08001C160FEF794FA06464FF4FE
:1024D0007A78042707E000BFFEF78CFA801B40459E
:1024E00001D9677701252068C068400601D4002D16
:1024F000F2D02846BDE8F08170B50446006800259A
:10250000C16821F08001C16020688068800606D41F
:102510002046FFF72FF810B10420607701252846E8
:1025200070BD00001C49884201D2002070471B4941
:10253000884201D2012070471949884201D2022005
:1025400070471849884201D20320704716498842D3
:1025500001D2042070471549884201D205207047F6
:102560001349884201D2062070471249884201D29D
:10257000072070471049884201D2082070470F4950
:10258000884201D2092070470D49884201D20A20B1
:1025900070470B20704700000040000800800008D2
:1025A00000C0000800000108000002080000040844
:1025B000000006080000080800000A0800000C08D7
:1025C00000000E0810B5002303E010C841F82340B6
:1025D0005B1C9342F9D310BD2DE9F04F87B04FF04B
:1025E000000817460E460446CDF81480B0F1006F7F
:1025F00038D3A00736D1FEF7DDF81C48254604EB9A
:1026000087074CF25039844215D24FF0010A4FF03F
:10261000020BBD420FD22868401C11D02846CDF8CD
:102620000080FFF77FFF02AA05A982E8010C684637
:10263000FEF72CF828B14846FDF792FF70B10FE085
:102640002D1D4846FDF78CFFE3E7002321460220BD
:102650003268FEF771F818B9241D361DBC42F4D358
:10266000FEF760F807B0BDE8F08F000000100C081E
:10267000012000F0CFFBFBE74FF48065134C144EB4
:102680006F00A088452804D1002229463046FEF775
:10269000ACF9A088502804D1012229463046FEF723
:1026A000A4F96088342804D1002239463046FEF768
:1026B0009CF96088332800D020B901223946304681
:1026C000FEF793F9322000F0A5FBDAE79000002036
:1026D000001002404FF4FA74204600F09BFBFBE729
:1026E000044C00BF94F8E8000028FBD0FFF78CFDF5
:1026F000F8E70000904100204FF4FA7000F08AFBE8
:10270000FFF7ACFE1420F9E7DFF8D8A00122344926
:102710005046FFF757FF324D334FDFF8D0804FF46C
:10272000FA79002000F01CFB0646002000F002FBB6
:102730000446288810B1012836D04DE0012E04D17E
:10274000002202213846FEF750F9022C04D1002263
:1027500001213846FEF749F9301902D003280BD081
:102760003AE0012202213846FEF73FF901221146E4
:102770003846FEF73AF92FE0012028800246184932
:102780005046FFF729FFDFF868B000244E462021AD
:102790005846FEF722F9304600F03CFB641C062C3C
:1027A000F5DBFEF7F7F917E0A01903280DD24FF07B
:1027B0000901A8F800104FF0000028804FF0010236
:1027C00007495046FFF708FFCBE705D1484600F020
:1027D00021FB1021A8F80010642000F01BFBA0E7EB
:1027E000A200002000700008000C024090000020B1
:1027F0000010024010B5502080F31188BFF34F8FB6
:10280000BFF36F8F00F092FF18B104494FF0805072
:102810000860002080F3118810BD000004ED00E086
:1028200030B593B030216846FDF776FD14210CA831
:10283000FDF772FD1D480025016841F080510160DF
:10284000006800F0805011901948016841F48041FF
:1028500001600068022400F480401190092000907B
:102860004FF4803001900120CDE9050480050790E8
:1028700008AA0420482182E813000B906846FEF75E
:1028800043FB08B172B6FEE70CA90F2081E83100C6
:102890004FF48050CDE90F0502210CA8FEF72AFA6B
:1028A000002801D072B6FEE713B030BD40380240B8
:1028B000007000400248016841F4700101607047F7
:1028C00088ED00E00148FEF7C8BF000018030020B3
:1028D0000148FEF7C2BF0000600300200148FEF778
:1028E000BCBF000038040020F0B50268294C2A4D16
:1028F0002A4E2B4F2B4B4FF0804CA04209D0604505
:1029000007D0A84205D0B04203D0B84201D09842C7
:1029100004D122F0700E4A6842EA0E02A0421BD097
:10292000604519D0A84217D0B04215D0B84213D094
:10293000984211D01C4DA8420ED01C4DA8420BD07D
:102940001B4DA84208D01B4DA84205D01A4DA842E5
:1029500002D01A4DA84203D122F44075CA682A4316
:102960004D6922F080022A4302608A68C2620A68C6
:102970008262A04201D0984201D10969016301211C
:1029800041610169C90703D0016921F001010161B9
:10299000F0BD0000000001400004004000080040BD
:1029A000000C004000040140004001400044014090
:1029B0000048014000180040001C0040002000407A
:1029C00010B5846842EA032224F47F440A43224378
:1029D000826010BD826822F070020A4342F0070153
:1029E0008160704710B5036A046A24F00104046230
:1029F000846924F0F00444EA021423F00A020A4332
:102A00008461026210BD10B5036A046A24F01004E8
:102A10000462846923F0A00324F4704444EA02327F
:102A200043EA01118261016210BD10B5806B002183
:102A3000C185C184FEF7DEFF10BD01680C3151E88D
:102A4000002F22F4907241E80023002BF5D1016899
:102A5000143151E8002F22F0010241E80023002B3D
:102A6000F5D1016B012909D101680C3151E8002F22
:102A700022F0100241E80023002BF5D1202180F83C
:102A8000421000210163704708B590F842102229D6
:102A900001D0022008BD82684FF480539A4201D1D0
:102AA000016921B1816A9A421BD04AB10AE00268E9
:102AB000816A5268C2F308020A80816A891C08E0B0
:102AC000026972B10268526802F07F020A70816A7C
:102AD000491C8162C18D491E0904090CC18503D0BE
:102AE0001BE002685268F1E70168CA6822F0200220
:102AF000CA600168CA6822F48072CA6001684A69C3
:102B000022F001024A61202180F842100021416335
:102B1000026B012A03D0FFF73DF9002008BD0163D5
:102B200001680C3151E8002F22F0100241E8002327
:102B3000002BF5D101680A68D20602D50A684968F7
:102B40000091818DFEF755FFE7E7000070B5044660
:102B500000680169E26821F4405111430161216973
:102B6000A068E26908436169114308432168CA68A3
:102B700049F20C639A430243CA6020684169A26922
:102B800021F440711143416131492068884202D0EB
:102B90003049884202D1FEF777F901E0FEF764F987
:102BA000E2690023192164253226B2F5004F6268DC
:102BB00028D0A0FB0101930F9200FDF763FB0146B3
:102BC000B0FBF5F06FF01802504301EB800006EB0C
:102BD0000010B0FBF5F000F0F002B1FBF5F002EBF5
:102BE0000012B1FBF5F06FF01803584301EB8000C1
:102BF00006EB0010B0FBF5F000F00F002168104468
:102C0000886070BDA0FB010192185B41FDF73AFBA3
:102C10000146B0FBF5F00201B1FBF5F06FF01803CF
:102C2000584301EB800006EBC000B0FBF5F000F06C
:102C3000F80002EB4002B1FBF5F0584301EB8000D5
:102C400006EBC000B0FBF5F000F00700D6E700008F
:102C500000100140001401402DE9F8439846174642
:102C60000D460446089E24E0701C22D0FDF7C2FEEB
:102C7000A0EB0800B0421AD8CEB12068C16849075D
:102C800017D5802D15D0402D13D00168C9430907F1
:102C90000FD401680025406800902046FFF7CDFE64
:102CA0000820606484F840500120BDE8F8830320C8
:102CB000FBE72068006835EA000004D00020B84235
:102CC000D2D00020F1E70120F9E7000010B512484A
:102CD000FEF792FE104800680168C9438A060F4952
:102CE00001D4406808700E4890F86820012A11D07D
:102CF0000A7890F86630411C5A5490F86610002209
:102D0000491CC9B280F8661080F86520012901D1FC
:102D100080F8671010BD0000A8030020A00000206C
:102D2000904100200148FEF767BE0000F00300203C
:102D3000FEE7000010B5094C08212046FDF748FECB
:102D400038B93220FDF790FC08212046FDF740FEFF
:102D500008B1002010BD022010BD0000000C024090
:102D600010B5094C10212046FDF732FE38B932204B
:102D7000FDF77AFC10212046FDF72AFE08B100205D
:102D800010BD012010BD0000000C02400907090E13
:102D9000002804DB00F1E02080F80014704700F008
:102DA0000F0000F1E02080F8141D704702E008C811
:102DB000121F08C1002AFAD170477047002001E0B5
:102DC00001C1121F002AFBD170470000FDF720FE51
:102DD000FFF726FDFFF77CF8FFF7E2F9FFF758F958
:102DE000FFF70CF9FFF786F9FFF7BAF90122910214
:102DF0000448FDF7FAFDFFF719FBFFF71FF800F095
:102E000010F8FEE70004024001460020842900D0AB
:102E1000C81C704710B500B9012000F023FB00204A
:102E200010BD10B500F044FB002010BD7FB50D466D
:102E300004464169B0F9080081B1A16971B1FFF799
:102E4000E3FFD4E905128DE80700D4E900102B4612
:102E5000226900F040FC039004B070BDFFF7D4FF7E
:102E600003A9CDE90001208A2B4682B2D4E90010E3
:102E700000F004FC012801D00020EDE70398EBE707
:102E80002DE9F041184C0F460546E6682068001D04
:102E900000F020FA38B9206890F82C100120884002
:102EA000216981432161681C07D137B12168BDE8E0
:102EB000F0410E48091D00F051BA20683544B54272
:102EC0004560216805D2A06BBDE8F041091D00F006
:102ED0002DBA606B091D00F029FAA06A854200D264
:102EE000A562BDE8F0810000280000207C050020DC
:102EF0002DE9F041054600F03DFA2E4CA068401C3B
:102F0000A06020682C4F10B1606940B32DE02560AF
:102F1000A068012829D1002606EB860007EB800077
:102F200000F0F6F9761C072EF6D323488C3000F01B
:102F3000EFF92148A03000F0EBF91F48B43000F061
:102F4000E7F91D48C83000F0E3F91B48DC3000F019
:102F5000DFF919488C3060631430A06305E0206805
:102F6000E96AC06A884200D82560606A401C6062D5
:102F7000E96A0120226988401043206101EB810049
:102F800007EB8000291D00F0E9F900F013FA6069F1
:102F900000280CD02068E96AC06A884207D2074935
:102FA0004FF080500860BFF34F8FBFF36F8FBDE8C5
:102FB000F081000028000020A004002004ED00E0C3
:102FC00010B5044690F8510058B101280CD00228E1
:102FD0000FD0502080F31188BFF34F8FBFF36F8F56
:102FE000FEE7206B00F0FAF92046BDE8104000F043
:102FF000F5B910BD10484FF47051420706D0C01DFE
:103000000D4920F00700411AC1F570510B4A002309
:103010000144C2E900030839183A21F007011160A0
:103020004B600B600B1AC0E9001393604FF0004037
:103030005360506170470000900500207C00002024
:10304000144E154CA6F1C8074FF08058DFF84C908D
:1030500012E000BF00F08EF9F068C568281D00F08E
:1030600039F9A068401EA0606068401E606000F0F2
:10307000A1F92846FFF7A4FF60680028EAD1386864
:103080000128F9D9C9F80080BFF34F8FBFF36F8FC4
:10309000F2E70000680500202800002004ED00E0B1
:1030A0002DE9F0479A46DDE9098481466FF0030374
:1030B000206B03EB82021044089E20F0070778077C
:1030C00007D0502080F31188BFF34F8FBFF36F8F6D
:1030D000FEE7002561B1002023180A5C83F8342044
:1030E0000A5C12B1401C1028F6D384F8435001E06A
:1030F00084F83450072E00D30626E662C4E9116531
:10310000201D00F010F904F1180000F00CF9246102
:10311000C6F107006462A061E56484F8505052462D
:103120004946384600F0C0F82060B8F1000F01D0E1
:10313000C8F80040BDE8F08730B5114900E01146FD
:103140000A688242FBD34B685C18844203D1406812
:1031500018444860084643681C18944209D1084C3A
:10316000183C2468A24209D052681A4442600A6896
:1031700012680260814200D0086030BD0460F9E747
:103180007C0000200648416B096829B1416BC96881
:10319000C9684968816270474FF0FF31FAE7000063
:1031A0002800002008484068401C4FF0500080F381
:1031B000118804D0BFF34F8FBFF36F8FFEE7BFF3CB
:1031C0004F8FBFF36F8FFEE7840000202DE9F041A1
:1031D0000546002700F0A2F9324E306808B9FFF723
:1031E00009FF706905424ED1C5B3083568070ED096
:1031F00005F00700C0F108000544680707D050201B
:1032000080F31188BFF34F8FBFF36F8FFEE72DB3AD
:103210007068854237D82348183001460C6801E0B1
:1032200020460C466168A94202D221680029F7D1E4
:1032300031688C4227D007682168016060680837D0
:10324000411B10290FD96019420708D0502080F384
:103250001188BFF34F8FBFF36F8FFEE713E041601C
:103260006560FFF769FF61687068401A7060B26856
:10327000904200D2B060706901430020C4E90001AF
:10328000F068401CF06000F0B7FA780707D05020D3
:1032900080F31188BFF34F8FBFF36F8FFEE738467F
:1032A000BDE8F0816400002010B5031F4FF080746A
:1032B0001C601B1F21F001011960191F044B0B60DA
:1032C00014390A60091F6FF0020244380A6010BD09
:1032D000A5310008D0E9013201699A60D0E90123E3
:1032E0005A604A68824201D182684A6000220261C3
:1032F0000868401E0860086870470000034B0360C0
:1033000003F154000860802010607047A400002082
:1033100000F108014FF0FF32C0E90112C160016104
:1033200000210160704700210161704730B50B68D2
:103330005A1C02D000F1080202E0026904E02246B1
:10334000546825689D42FAD953684B6099608A6039
:10335000516008610168491C016030BD42684A60E3
:1033600093688B6093685960916008610168491C9B
:1033700001607047502080F31188BFF34F8FBFF377
:103380006F8F0A494868401C486001280CD10848E2
:10339000006810F0FF0F07D0502080F31188BFF3B2
:1033A0004F8FBFF36F8FFEE770470000840000204F
:1033B00004ED00E00849486828B1401E486001D18A
:1033C00080F311887047502080F31188BFF34F8F2E
:1033D000BFF36F8FFEE700008400002070B5002867
:1033E0002AD0164DA0F1080460686969084207D127
:1033F000502080F31188BFF34F8FBFF36F8FFEE72C
:1034000022683AB1502080F31188BFF34F8FBFF389
:103410006F8FFEE78843606000F080F8606869683D
:10342000084468602046FFF787FE2869401C286131
:10343000BDE8704000F0E0B970BD000064000020FD
:103440004FF0E02000210161816105494FF47A725B
:103450000968B1FBF2F1491E416107210161704722
:103460002400002010B5020014D00F48006B38B1C2
:10347000502080F31188BFF34F8FBFF36F8FFEE7AB
:1034800000F04CF800211046FFF7FAFC00F0B4F908
:10349000002807D105494FF080500860BFF34F8FD7
:1034A000BFF36F8F10BD00002800002004ED00E086
:1034B00010B586B00024039405AA04A903A80494B7
:1034C000FFF71CFFDDE903010094CDE901100023A3
:1034D0000EA11048059A00F0FEF80F490028C862B6
:1034E00011D0502080F31188BFF34F8FBFF36F8F3F
:1034F0004FF0FF30886201204861CC6006B0BDE823
:10350000104000F041B806B010BD000049444C45E1
:103510000000000041300008280000200248016B34
:10352000491C016370470000280000201448016B0B
:1035300011B10121C16170470021C1610169B1FA76
:1035400081F1C1F11F0101EB81020E4951F82230D6
:103550006BB101EB820101F108034A6852684A60CD
:103560009A4201D152684A60D16801607047502088
:1035700080F31188BFF34F8FBFF36F8FFEE700001A
:1035800028000020A00400201CB537480168374AF5
:10359000914207D1502080F31188BFF34F8FBFF3C2
:1035A0006F8FFEE700683149491E884207D15020DD
:1035B00080F31188BFF34F8FBFF36F8FFEE72C4965
:1035C00008780190FF20087008788DF800009DF8B9
:1035D00000009DF8002000F0F000904207D050203D
:1035E00080F31188BFF34F8FBFF36F8FFEE79DF815
:1035F0000000204C00F0500020700720A06005E083
:103600009DF8002052008DF80020401E9DF80020FB
:103610001206F5D4A060032807D0502080F311884B
:10362000BFF34F8FBFF36F8FFEE74FF44070A06082
:10363000019808700C482030016841F47001016065
:10364000016841F070410160FFF7FAFE0020606000
:10365000FCF7CAFD0848016841F040410160FCF7F1
:10366000AFFD00201CBD000000ED00E071C20F4165
:1036700000E400E08400002034EF00E02DE9FF5F6B
:103680008346DDE90E87994616468A469000FFF785
:103690009DFD05001CD05420FFF798FD040014D0B8
:1036A0000020256384F85100CDE90240CDE9008770
:1036B0004B46324651465846FFF7F2FC2046FFF78C
:1036C00017FC012004B0BDE8F09F2846FFF786FEF6
:1036D0004FF0FF30F6E7F0B585B0DDE90B640A9DE9
:1036E000A6B1DCB1542700972663022684F8516006
:1036F000002604AFCDE90246CDE90057FFF7D0FC24
:103700002046FFF7F5FB049805B0F0BD502080F38C
:103710001188BFF34F8FBFF36F8FFEE7502080F308
:103720001188BFF34F8FBFF36F8FFEE72DE9F04194
:103730002F4C0026206B28B1A069401CA0613046A8
:10374000BDE8F081E5686D1CE56013D1606B006831
:1037500038B1502080F31188BFF34F8FBFF36F8FC4
:10376000FEE7606BA16B6163A063206A401C20626E
:10377000FFF708FDA06ADFF87C80854209D3606B03
:103780000068A0B1606BC068C7687868854211D2D4
:10379000A0622068C06A00EB800158F8210001286F
:1037A00000D90126E0690028C9D00126C7E74FF0FB
:1037B000FF30EDE7381DFFF78DFDB86A18B107F14E
:1037C0001800FFF787FDF96A01202269884010433D
:1037D000206101EB810108EB8100391DFFF7BEFD7F
:1037E000F86A2168C96A8842C9D30126C7E7000080
:1037F00028000020A00400202DE9F0472C4D0024D3
:103800002746286B38B1FFF7B5FD286B401E2863AB
:10381000286B40B146E0502080F31188BFF34F8FF2
:10382000BFF36F8FFEE7A968224E0120D1B3A6F146
:10383000B40980463068E8B1F068C46804F1180043
:10384000FFF748FD201DFFF745FDE06A2A6908FAE9
:1038500000F11143296100EB800109EB8100211D7A
:10386000FFF77CFDE06A2968C96A8842E2D3C5F89F
:103870001C80DFE70CB1FFF785FCAC6944B146461C
:10388000FFF754FF00B1EE61641EF9D10020A8617A
:10389000E86938B10849012738070860BFF34F8F3E
:1038A000BFF36F8FFFF786FD3846BDE8F087000055
:1038B000280000205405002004ED00E0843B0008AF
:1038C000D5260008FFFF0000000000008000000077
:1038D00000000000000000009C3B0008F9260008E2
:1038E0000000000000000000800000000000000058
:1038F00000000000A83B000871260008FFFF000040
:103900000000000080000000000000000000000037
:10391000B43B0008E1260008FFFF000000000000A3
:10392000800000000000000000000000903B000844
:1039300079260008FFFF0000000000008000000062
:1039400000000000000000007C3B00080927000880
:10395000FFFF0000000000008000000000000000E9
:10396000000000000000000000000000010203044D
:1039700006070809000000000102030400C181409D
:1039800001C0804101C0804100C1814001C080412F
:1039900000C1814000C1814001C0804101C080411F
:1039A00000C1814000C1814001C0804100C181400F
:1039B00001C0804101C0804100C1814001C08041FF
:1039C00000C1814000C1814001C0804100C18140EF
:1039D00001C0804101C0804100C1814000C18140DF
:1039E00001C0804101C0804100C1814001C08041CF
:1039F00000C1814000C1814001C0804101C08041BF
:103A000000C1814000C1814001C0804100C18140AE
:103A100001C0804101C0804100C1814000C181409E
:103A200001C0804101C0804100C1814001C080418E
:103A300000C1814000C1814001C0804100C181407E
:103A400001C0804101C0804100C1814001C080416E
:103A500000C1814000C1814001C0804101C080415E
:103A600000C1814000C1814001C0804100C181404E
:103A700001C0804101C0804100C1814000C0C1013E
:103A8000C30302C2C60607C705C5C404CC0C0DCDCE
:103A90000FCFCE0E0ACACB0BC90908C8D81819D93E
:103AA0001BDBDA1A1EDEDF1FDD1D1CDC14D4D5156E
:103AB000D71716D6D21213D311D1D010F03031F15E
:103AC00033F3F23236F6F737F53534F43CFCFD3D8E
:103AD000FF3F3EFEFA3A3BFB39F9F83828E8E9297E
:103AE000EB2B2AEAEE2E2FEF2DEDEC2CE42425E52E
:103AF00027E7E62622E2E323E12120E0A06061A19E
:103B000063A3A26266A6A767A56564A46CACAD6D4D
:103B1000AF6F6EAEAA6A6BAB69A9A86878B8B979BD
:103B2000BB7B7ABABE7E7FBF7DBDBC7CB47475B5ED
:103B300077B7B67672B2B373B17170B050909151DD
:103B40009353529296565797559594549C5C5D9D0D
:103B50005F9F9E5E5A9A9B5B9959589888484989FD
:103B60004B8B8A4A4E8E8F4F8D4D4C8C44848545AD
:103B70008747468682424383418180406C697175E4
:103B8000696400004C45445F5461736B00000000A1
:103B900046414E5F5461736B000000005057525F06
:103BA0005461736B00000000424F4F545F546173C7
:103BB0006B0000004D6F646275735F5461736B003E
:103BC000E03B000800000020A4000000AC2D00082D
:103BD000843C0008A4000020DC450000BC2D000847
:103BE00000000000000000000000000000000000D5
:103BF00000000000000000000100000010000000B4
:103C0000000000000024F40000000000000000009C
:103C100000000000000000000000000000000000A4
:103C20000000000000000000000000000000000094
:103C30000000000000000000000000000000000084
:103C40000000000000000000000000000000000074
:103C50000000000000000000000000000000000064
:103C60000000000000000000AAAAAAAA00000000AC
:103C70000100020003000400050006000700080020
:043C80000000000040
:040000050800018965
:00000001FF
