:020000040800F2
:10000000F01E00209D01000865260008751D0008EF
:1000100071250008D3020008C9370008000000005D
:1000200000000000000000000000000005010008C2
:100030009504000800000000490100086D32000826
:10004000B7010008B7010008B7010008B7010008B0
:10005000B7010008B7010008B7010008B7010008A0
:10006000B7010008B7010008B7010008B701000890
:10007000B7010008B7010008B7010008B701000880
:10008000B7010008B7010008B7010008B701000870
:10009000B7010008B7010008B7010008B701000860
:1000A000B7010008B7010008B7010008B701000850
:1000B0001D330008B701000829330008B701000804
:1000C000B7010008B7010008B7010008B701000830
:1000D000B701000865370008BD370008B701000800
:1000E000B7010008B7010008B7010008DFF810D019
:1000F00000F0B2F800480047153C0008AFF300805C
:10010000F01E0020224B19680868B0E8F00F80F359
:100110000988BFF36F8F4FF0000080F311884EF015
:100120000D0E70470000000006480068006880F36C
:10013000088862B661B6BFF34F8FBFF36F8F00DFE1
:1001400000BF00BF08ED00E0EFF30980BFF36F8F41
:100150000F4B1A6820E9F00F106008B54FF05000FF
:1001600080F31188BFF34F8FBFF36F8F04F01EF938
:100170004FF0000080F31188BDE808401968086856
:10018000B0E8F00F80F30988BFF36F8F704700BFAE
:1001900020000020EFF305807047000006488047EC
:1001A00006480047FEE7FEE7FEE7FEE7FEE7FEE75C
:1001B000FEE7FEE7FEE7FEE719330008ED00000862
:1001C0000649074A0868504343F239021044086060
:1001D000400870470149086070470000340900205A
:1001E0006D4EC64140EA01039B0703D009E008C9F0
:1001F000121F08C0042AFAD203E011F8013B00F8EC
:10020000013B521EF9D27047D2B201E000F8012B37
:10021000491EFBD270470022F6E710B513460A4686
:1002200004461946FFF7F0FF204610BD30B50B46D7
:10023000014600202022012409E021FA02F59D4216
:1002400005D303FA02F5491B04FA02F52844151EEA
:10025000A2F10102F1DC30BD064C074D06E0E0687A
:1002600040F0010394E8070098471034AC42F6D3FD
:10027000FFF740FFEC5A00080C5B000870B58C18C3
:1002800010F8015B15F0070301D110F8013B2A11AA
:1002900006D110F8012B03E010F8016B01F8016B97
:1002A0005B1EF9D12B0705D40023521E0DD401F893
:1002B000013BFAE710F8013BCB1A921C03E013F85C
:1002C000015B01F8015B521EF9D5A142D8D3002091
:1002D00070BDFEE700F0E2B810B500F057F8BDE8D9
:1002E0001040322000F0E8B910B5282003F0F4F8EF
:1002F0001021044800F0E2FA08B1002010BD0120EE
:1003000010BD0000001801401FB51022084B01214C
:1003100020B100200092CDE9010104E00320CDE9E5
:100320000021CDE902106946184600F0D7F91FBD3B
:100330000018014010B50C4C1021204600F0BEFA08
:100340000028F9D0282003F0C7F81021204600F03B
:10035000B5FA002806D01021204600F0AFFA002898
:10036000F9D1012010BD00000018014070B5002433
:1003700025466006040EFFF7DDFF08B144F00104D6
:100380006D1CEDB2082DF4D3204670BD3EB50020A3
:100390000190029000F06AF8FFF7A6FF002852D003
:1003A0002A4C1021204600F089FA0028F9D01021AB
:1003B000204600F083FA0028F9D100240DF104054D
:1003C000FFF7D4FF2855641CE4B2052CF8D39DF840
:1003D00004009DF805109DF8072008449DF80610BC
:1003E000114408449DF8081088422AD100211023A6
:1003F00017A2084602F0AFFC102318A200215A20D1
:1004000002F0A9FC102400949DF80620022300218C
:10041000622002F06BFC102311A20221002002F0E6
:100420009AFC10230DA20221412002F094FC022329
:1004300000949DF804201946492002F057FC012041
:100440003EBD00203EBD02203EBD00000018014020
:1004500054656D7065726174757265003A000000D4
:1004600048756D69646974790000000010B500205A
:10047000FFF74AFF00221021054800F024FA14205B
:1004800000F01AF9BDE810400120FFF73DBF000061
:1004900000180140704772B6FEE70000F8B501266B
:1004A00000254B4C03F0F0FA08287DD02079012874
:1004B00065D0A068401CA0602069002802DC03F021
:1004C000E3FA207002F0B0FA02F088F920690028FF
:1004D00073DC2078022870D002F0D6F96179607858
:1004E00002F0FEF86061617800296BD001296BD0C1
:1004F0001821A170C9B2C8420CD5FFF761FEC1171F
:1005000000EB917121F00301401AC0B2607001212B
:1005100002F0E6F8206910280ADA6069A0F11001FB
:10052000102904D9A17808441038102800D8267161
:100530000C2328A20021232002F00DFC0C27009799
:10054000052300213A20E26802F0D0FB0097052342
:1005500000216220A26802F0C9FB6571A068142125
:10056000B0FBF1F0C0B2E0701D2801D91D20E07091
:10057000C0B2C0F11E0000F09FF8257092E702F0B3
:1005800087FA03F081FAC0B2207007288AD1D4E933
:100590000201884200D9E060A560257125613046DE
:1005A000667102F0A7F901E010E006E06179607879
:1005B00002F096F802F057F874E7607902F09AF9C1
:1005C00020618BE7082194E7102192E7F8BD000035
:1005D0008000002048493A0010B590F82110002210
:1005E000022905D00421816380F82020012010BD5C
:1005F00001680B6823F00E030B6001680B6823F0A1
:1006000001030B6090F84030C46B012101FA03F341
:10061000636080F8211080F82020104610BD000093
:1006200010B590F821100024022903D00421816321
:1006300001243DE001680A6822F00E020A600168A8
:100640000A6822F001020A601A4A0168914201D147
:10065000012121E0174A1432914201D110211BE0FF
:10066000144A2832914201D1891515E0114A3C32D1
:10067000914201D189140FE00E4A5032914202D1C9
:100680004FF4803108E00B4A6432914202D14FF4BA
:10069000801101E04FF08071064A083A5160012153
:1006A00080F82110002180F82010416B01B18847AB
:1006B000204610BD0800024070B5044600F008F95D
:1006C0000546601C02D004480078044400F000F99C
:1006D000401BA042FAD370BD100000202DE9F84F56
:1006E000DFF8B8910024A9F1040B23460F2709F184
:1006F000040AABF1040EC9E00125A5402A40AA4234
:100700007DD1674ED1F804C0ACEB0608B44532D0B9
:1007100014DCBCF1030F3AD009DCBCF1000F2AD085
:10072000BCF1010F1CD0BCF1020F31D11DE0BCF1B6
:10073000110F17D0BCF1120F2AD119E0B8F5881F9C
:1007400019D006DCB8F5803F15D0B8F5801F1FD151
:1007500011E0B8F5001F0ED0B8F5041F18D10AE05B
:10076000CB6815E0CB681B1D12E0CB6808330FE0A7
:10077000CB680C330CE08B682BB1012B4FF00803D6
:1007800003D0456104E0042302E0056100E000239A
:10079000FF2A01D8064601E000F104064FEA84056D
:1007A00001D9A5F12005D6F8008007FA05FC28EA52
:1007B0000C0803FA05F548EA0508C6F800804D68FC
:1007C000ED0062D5374DAE6946F00106AE61AD6908
:1007D00024F0030605F001050095334D06EB050CEA
:1007E000DCF80850A607360F07FA06F825EA0805D0
:1007F000DFF8B880404503D14FF0000817E044E02F
:10080000DFF8AC80404502D14FF001080FE0DFF87F
:10081000A480404502D14FF0020808E0DFF898803C
:10082000404502D14FF0030801E04FF0040808FAF8
:1008300006F848EA0508CCF808804D68D9F8006049
:10084000ED024D4601D5164300E096432E604D68FB
:10085000DAF80060AD02554601D5164300E0964334
:100860002E604D68DBF80060AD035D4601D5164390
:1008700000E096432E604D68DEF80060ED0375469B
:1008800001D5164300E096432E60641C0D682A468D
:10089000E5407FF431AFBDE8F88F00000804014067
:1008A000000011100010024000000140000801404B
:1008B000000C014000100140001401408068084015
:1008C00000D0012070470AB1016170470904FBE7BD
:1008D00001488068704700001000002002488168CD
:1008E000027811448160704710000020074810B55D
:1008F000016841F010010160032000F0A7F80F200B
:1009000000F006F800F050F8002010BD0020024072
:1009100030B505461F4887B0C16941F00401C16187
:10092000C06906A900F00400009001A800F004FAD4
:100930000498B0B100F020FA40001749174AB0FB04
:10094000F1F11748491E0260416040F2E732002190
:10095000C0E903218160816100F0E8FD040003D05B
:1009600015E000F009FAE8E70D4800F035FE040054
:100970000DD11E2000F03CF8102D07D20022294690
:100980001E2000F043F80748056000E0012407B08E
:10099000204630BD0010024040420F0000080040D9
:1009A000C40C0020140000200F4808B5816941F0F4
:1009B00001018161816901F001010091C16941F08A
:1009C0008051C161C069002200F0805000900F2169
:1009D000901E00F01BF80548416821F0E06141F0ED
:1009E0000071416008BD000000100240000001409D
:1009F000002809DB00F01F0201219140400980001E
:100A000000F1E020C0F8001170470000F0B40E4B78
:100A10001B680C46C3F30223C3F10705042D00D95C
:100A20000425191D072901D2002300E0DB1E012641
:100A300006FA05F1491E214099409E40761E164057
:100A40003143F0BC02F0D2BE0CED00E0064900F0EC
:100A5000070208684FF6FF03184040EA0220034AE5
:100A600010430860704700000CED00E00000FA053C
:100A7000014901200862704700000E4210B501468E
:100A80000020234C012922D0022939D010291DD160
:100A900061682268D20119D51E48C1F38342C90397
:100AA000805C0AD561681B4AC1F34041921E515CCB
:100AB000194AB2FBF1F1484301E018494843616823
:100AC000490203D440000321B0FBF1F010BD226ABB
:100AD000C2F30121012903D1920701D5C80310BD3A
:100AE000022905D1626A920702D549F6404010BD3D
:100AF0000329FCD121688903F9D54FF2244010BDA8
:100B000000F04AF96168C1F38131491C4900DBE713
:100B1000001002407047000800127A0000093D00F2
:100B20002DE9F84305460078354CC00754D0E069FC
:100B30000026C00008D4E06940F08050E061E06920
:100B4000012600F0805000902E480168C90512D49B
:100B50000168804641F480710160FFF7B9FE0746E5
:100B600005E000BFFFF7B4FEC01B642823D8D8F807
:100B70000000C005F6D5206A10F4407021D0A98885
:100B800001F4407181421CD0206A1F49012220F4E7
:100B900040700A6000220A602062C00711D0FFF78F
:100BA00097FE074641F2883808E000BFFFF790FE45
:100BB000C11B414502D90320BDE8F883206A8007A4
:100BC000F4D5206A696820F44070084320621EB1A1
:100BD000E06920F08050E0612878800705D56068E2
:100BE000A96820F44040084360602878C00605D515
:100BF0006068E96820F48000084360600020DBE75B
:100C00000010024000700040400442422DE9F047CD
:100C10000F46050061D0434E306800F00700B8422F
:100C200009D2306820F0070038433060306800F0A7
:100C30000700B84251D128683B4C810712D54007C4
:100C400003D5606840F4E06060602878000703D551
:100C5000606840F4605060606068A96820F0F0004F
:100C6000084360602878C00728D06868012810D041
:100C70002168022810D0890700292EDA616821F046
:100C8000030101436160FFF723FE804641F288398A
:100C90000DE021688903EFE78901EDE7FFF718FE12
:100CA000A0EB0801494502D90320BDE8F087606840
:100CB000696800F00C00B0EB810FEFD1306800F0F4
:100CC0000700B8420BD9306820F007003843306085
:100CD000306800F00700B84201D00120E5E728782D
:100CE000400705D56068E96820F4E060084360606B
:100CF0002878000706D56068296920F4605040EA2A
:100D0000C100606000F058F86168084AC1F303113F
:100D1000515CC8400649086006480068FFF7F8FDC6
:100D20000020C2E700200240001002408047000877
:100D30001C000020140000200F2202600C4A53689F
:100D400003F003034360536803F0F00383605368C8
:100D500003F4E063C36052684FF4E06303EAD20235
:100D600002610448006800F0070008607047000056
:100D7000001002400020024004480549006849680C
:100D8000044AC1F30221515CC84070471C00002096
:100D9000001002409047000804480549006849686F
:100DA000044AC1F3C221515CC84070471C000020B6
:100DB00000100240904700080E4A51680E4801F0AA
:100DC0000C03042B11D0082B0FD10C48C1F3834323
:100DD000C903C05C0AD55168084AC1F34041921E5C
:100DE000515C054A5043B0FBF1F070470449484359
:100DF000704700000010024000127A005E470008B1
:100E000000093D002DE9F84F040070D02078C04D56
:100E1000C00749D06868C0F38100012807D068681E
:100E2000C0F38100022809D16868C00306D528688C
:100E3000800339D560680028E7D035E06068B0F5F8
:100E4000803F0BD010B1B0F5A02F11D0286820F44E
:100E500080302860286820F4802002E0286840F470
:100E600080302860606890B1FFF732FD06460AE0E6
:100E7000286840F480202860F0E700BFFFF728FDD5
:100E8000801B642873D828688003F7D50CE0FFF72F
:100E90001FFD064605E000BFFFF71AFD801B642812
:100EA000F0D828688003F7D420789A4E80074FF056
:100EB00001094FF0000839D5686810F00C0F07D011
:100EC0006868C0F38100022809D16868C00306D4AD
:100ED0002868800714D52069012808D110E020690E
:100EE000B0B1C6F80090FFF7F3FC074605E00AE151
:100EF000FFF7EEFCC01B0228C4D828688007F7D58E
:100F00002868616920F0F80040EAC10028600DE01F
:100F1000C6F80080FFF7DCFC074604E0FFF7D8FCCA
:100F2000C01B022823D828688007F7D42078000740
:100F30002CD57948A169D9B1C0F80090FFF7C8FC59
:100F4000074604E0FFF7C4FCC01B02280FD8686AFC
:100F50008007F7D571484FF4FA510068B0FBF1F003
:100F6000009000BF0098411E0091FAD20EE080E090
:100F7000C0F80080FFF7ACFC074604E0FFF7A8FCD0
:100F8000C01B022875D8686A8007F7D4207840070C
:100F900060D5E8690027C00008D4E86940F08050B7
:100FA000E861E869012700F0805000905C48016822
:100FB000C90513D40168834641F480710160FFF7CD
:100FC00087FC824606E000BFFFF782FCA0EB0A0028
:100FD00064284ED8DBF80000C005F5D5E06801288C
:100FE0000AD008B1052813D0286A20F00100286231
:100FF000286A20F0040002E0286A40F0010028621C
:10100000E06841F2883B98B1FFF762FC82460BE052
:10101000286A40F004002862EEE700BFFFF758FCA2
:10102000A0EB0A0159455AD8286A8007F6D50CE08A
:10103000FFF74EFC824605E0FFF74AFCA0EB0A01F1
:1010400059454CD8286A8007F6D41FB1E86920F0CA
:101050008050E861E06988B36968C1F381010229C1
:1010600044D00228C6F8608004D0FFF731FC044663
:1010700038E034E0FFF72CFC074604E0FFF728FCDB
:10108000C01B02282BD828688001F7D4206AB0F54D
:10109000803F05D16868A16820F40030084368608B
:1010A000D4E908010843696821F4741108436860B1
:1010B000C6F86090FFF70CFC044606E025E000BF90
:1010C000FFF706FC001B022809D828688001F7D525
:1010D0001BE000BFFFF7FCFB001B022802D9032026
:1010E000BDE8F88F28688001F4D40EE00128F7D01D
:1010F0006868226A00F48031914204D1616A00F488
:101100007010884201D00120EAE70020E8E70000E3
:101110000010024000004242800442421C000020B5
:1011200000700040F8B505004FF0000016460C4670
:10113000009006D02CB100226946284600F019F82C
:1011400008B10120F8BD287B2070E87BE070697B46
:101150006170A97BA17056B101F077FEE0706078F4
:1011600001F073FE6070A07801F06FFEA0700020A7
:10117000F8BD2DE9F04791460C465FEA00084AD0D9
:1011800084B3D8F800004068400744D4404601F0DA
:10119000FBFE4FF461620546B0FBF2F1B0FBF2F3E7
:1011A00002FB13503C23B0FBF3F0B5FBF2F660708A
:1011B00002FB1650B0FBF3F203FB1200A0701829DB
:1011C00031D31820B1FBF0F7B1FBF0F200FB1210A5
:1011D0002070404601F0D1FE411C04D0A84202D943
:1011E000461B02E017E04FF0FF36A7EB071000EBBD
:1011F0004000C0EB001005EBC0152946404601F049
:1012000012FF40B9701C01D0711900E03146404610
:1012100001F0F5FE10B10120BDE8F08739464046E7
:1012200001F01EFE00E02170B9F1000F0BD0207814
:1012300001F00BFE2070607801F007FE6070A0786E
:1012400001F003FEA0700020E6E7000070B5040086
:1012500003D0607C002610B105E0012070BD26742B
:10126000204600F03DF802206074204600F00AF9A4
:10127000042550BB204601F04AFE30BB206841687F
:1012800021F007014160A06820B11448016821F0F5
:10129000010101601148001F0168A26821F460711A
:1012A000114301606068411C04D10120FFF7E6FB97
:1012B00058B1401E2268C0F303419160216880B29A
:1012C000C860204601F03EFE08B16574C5E7E673CC
:1012D00001206073A0736074002070BD306C00400A
:1012E00008B50068084988420DD1FFF7C1FB0748DF
:1012F000C16941F00061C161C069054900F0006049
:1013000000900120086008BD002800400010024045
:101310003C0442422DE9F0410D4604003BD0C5B3E8
:10132000207C01283AD04FF0010884F81080022078
:101330006074E87872B301F07FFDE073687801F0C3
:101340007BFD6073A87801F077FDA073C2B2617B6A
:10135000E07B01F029FE20732870204601F014FE86
:101360004FF46161B0FBF1F1002518292DD9182245
:10137000B1FBF2F1A1EB011101EB4101C1EB011154
:1013800000EBC1163146204601F04DFE0427C8B9D6
:101390000BE000E004E00120BDE8F0810220FBE763
:1013A000E07368786073A878CFE7204601F0E5FD28
:1013B000411C0AD0B04208D206490144204601F03F
:1013C0001EFE10B167742574E5E784F8118025745A
:1013D0000020E1E7805101002DE9F0410D460400B5
:1013E00024D01DB3207C012823D04FF0010884F8BD
:1013F0001080022060742878EAB101F01DFD4FF4DE
:10140000616100FB01F6687801F016FDC0EB001089
:1014100006EB8006A87801F00FFD35182946204616
:1014200001F001FE0026042710BB0FE00120BDE8FB
:10143000F0810220FBE74FF4616148436978C1EB1A
:10144000011100EB8100A9784518E7E720684168A1
:1014500021F005014160204601F08FFD411C0AD0BA
:10146000A84208D206490144204601F0C8FD10B147
:1014700067742674DAE784F8118026740020D6E7B2
:101480008051010070B504000AD02068416821F045
:1014900008014160FFF71CFA05464FF47A7608E030
:1014A000012070BDFFF714FA401BB04201D90320A0
:1014B00070BD206840680007F4D5002070BD7047FB
:1014C0007047000070B590F83C20012A26D0012416
:1014D00080F83C40022280F83D2003685A689D68ED
:1014E00022F070060A6832435A600D4B02689A4235
:1014F00008D0B2F1804F05D00A4B9A4202D00A4B75
:101500009A4204D1496825F080031943916080F81C
:101510003D40002180F83C10084670BD022070BD9F
:10152000002C0140000400400008004010B50400F9
:1015300003D094F83D0010B107E0012010BD002059
:1015400084F83C00204600F01FF8022084F83D009B
:10155000211D206801F0EEFE012084F8460084F889
:101560003E0084F83F0084F8400084F8410084F88D
:10157000420084F8430084F8440084F8450084F86D
:101580003D00002010BD000008B501681048B1F111
:10159000804F0BD00F4A914207D1C16941F002013F
:1015A000C161C06900F00200009008BDC16941F04E
:1015B0000101C161C069002200F001000090052115
:1015C0001C20FFF723FABDE808401C20FFF710BAE3
:1015D000001002400004004090F83D10012901D0A5
:1015E00001207047022180F83D100168CA6842F06E
:1015F0000102CA6000680B49884208D0B0F1804FF0
:1016000005D00949884202D00849884204D181683E
:1016100001F00701062903D0016841F001010160D2
:1016200000207047002C01400004004000080040EA
:1016300070B5044690F83C000025012817D001261B
:1016400084F83C60022084F83D002068826822F023
:10165000770222F47F4282600868502838D00DDC7F
:1016600020284FD005DC90B3102811D14AE0022089
:1016700070BD302846D040280AD13BE060282FD0EA
:1016800070280DD0B0F5805F03D0B0F5005F12D0A8
:10169000012584F83D60002084F83C00284670BD98
:1016A000CB68D1E90121206801F07AFE20688168C9
:1016B00041F0770109E0CB68D1E90121206801F010
:1016C0006FFE2068816841F480418160E1E719E0A4
:1016D000CA684968206801F075FE5021206806E05C
:1016E000CA684968206801F07EFE6021206801F028
:1016F00061FECEE7CA684968206801F063FE4021B8
:101700002068F4E7226801461046F0E7704770B59C
:101710000446006801694FF00005C943890715D4E4
:10172000C168C943890711D4E91E016101202077EE
:10173000206880698007204602D0FFF7E7FF04E0B9
:1017400000F098F8204600F096F8257720680169A7
:10175000C943490717D4C168C943490713D46FF077
:1017600004010161022020772068806910F4407F25
:10177000204602D0FFF7CAFF04E000F07BF82046C5
:1017800000F079F8257720680169C943090716D464
:10179000C168C943090712D46FF008010161042030
:1017A00020772068C0698007204602D0FFF7AEFF8F
:1017B00004E000F05FF8204600F05DF8257720682F
:1017C0000169C943C90617D4C168C943C90613D4FE
:1017D0006FF010010161082020772068C06910F4C3
:1017E000407F204602D0FFF791FF04E000F042F86E
:1017F000204600F040F8257720680169C943C907F1
:1018000008D1C168C943C90704D1891E01612046B6
:1018100000F032F820680169C943090609D4C1689B
:10182000C943090605D46FF0800101612046FFF726
:1018300046FE20680169C943490609D4C168C94305
:10184000490605D46FF040010161204600F042F8DE
:1018500020680169C94389060BD4C168C943890658
:1018600007D46FF0200101612046BDE87040FFF70A
:1018700027BE70BD7047704710B504460068134915
:10188000884201D1FFF72AF82068B0F1804F1BD1C0
:101890000F48012290F8671061B190F86510491C5B
:1018A000C9B280F86510082904D3002180F86710B8
:1018B00080F86820D0F8E810491CC0F8E810B1F5AD
:1018C000FA6F01DD80F8EC2010BD00000008004038
:1018D000FC1900207047704770470000F8B5016898
:1018E00004460868CA684B6910F00F0F4FF00005F6
:1018F00059D003F0010602F49077374365D0C10751
:1019000005D0D10503D5616C41F001016164410747
:1019100005D5D90703D0616C41F0020161648107EC
:1019200005D5D90703D0616C41F00401616401075A
:1019300007D502F02001314303D0616C41F008016A
:101940006164616C00293AD0800604D5900602D506
:10195000204601F00EFE20684069616CC0F38010E3
:10196000090700D460B3204601F0DCFD206840691F
:10197000400621D52068143050E8001F21F04001B6
:1019800040E80012002AF5D1E06BA8B16D4941632F
:10199000E06BFEF745FE002811D0E06B416B01B013
:1019A000BDE8F040084783060FD593060DD52046C5
:1019B000BDE8F84001F0DDBD2046FFF78DFFF8BD22
:1019C0002046FFF789FF6564F8BD266B2023012EB2
:1019D0007CD1C6067AD5D60678D5086848680090C6
:1019E00048694FF00206400640D5E16B0868406840
:1019F0000004000CE8D0A28D8242E5D9E085886918
:101A000020282DD020680C3050E8001F21F4807170
:101A100040E80012002AF5D12068143050E8001F79
:101A200021F0010140E80012002AF5D120681430AD
:101A300050E8001F21F0400140E80012002AF5D1D3
:101A400084F84230256320680C3050E8001F21F0F4
:101A5000100140E80012002AF5D1E06BFEF7BCFD52
:101A60006663A08DE18D401A81B22AE0A08DE18DE0
:101A7000401A81B2E08D0028A6D00029A4D02268A7
:101A80000C3252E8000F20F4907042E80007002F5B
:101A9000F5D12068143050E8002F22F0010240E810
:101AA0000027002FF5D184F84230256320680C30E0
:101AB00050E8002F22F0100240E80023002BF5D15F
:101AC00066632046FFF707FFF8BDFFE705062BD545
:101AD000150629D594F841002128F5D1A068B0F564
:101AE000805F01D12069B0B1206A411C2162216868
:101AF00000784860E08C401E0004000CE084E3D1D4
:101B00002068C16821F08001C1602068C16841F08F
:101B10004001C160D8E7206A0088C0F3080048602F
:101B2000206A801C2062E5E74006CDD55006CBD563
:101B3000CA68204622F04002CA6084F8413000F0B2
:101B4000EFF8C1E71535000870B5040004D094F82B
:101B50004100002510B106E0012070BD84F840501E
:101B6000204600F023F8242084F841002068C16852
:101B700021F40051C160204601F05CFD206801693C
:101B800021F4904101612068416921F02A014161FD
:101B90002068C16841F40051C1606564202084F868
:101BA000410084F842006563002070BD70B586B0C6
:101BB000002400940194029403942E4E03682E494D
:101BC000022003222D4DB34226D18B6943F480437A
:101BD0008B618B6903F4804304938B6943F00403A6
:101BE0008B618969039201F0040104910102CDE93E
:101BF000001069462846FEF771FD2815CDE900045E
:101C0000694628460294FEF769FD00220521252039
:101C1000FEF7FCFE252028E0194EB34227D1CB6900
:101C200043F40033CB61CB6903F4003304938B6935
:101C300043F004038B618969039201F0040104916C
:101C40000421CDE9001069462846FEF747FD08202B
:101C5000CDE90004694628460294FEF73FFD0022C4
:101C600005212620FEF7D2FE2620FEF7C1FE06B093
:101C700070BD000000380140001002400008014023
:101C80000044004070472DE9F843044690F84100B5
:101C90001F4616460D46202802D00220BDE8F883D4
:101CA0007DB176B100206064212084F84100FEF708
:101CB0000FFEA6848046E684A068B0F5805F02D05F
:101CC00003E00120EAE7206910B12E4600250EE06E
:101CD00000260CE08021204601F008FDA0B9AEB13D
:101CE00016F8010B21684860E08C401EE084E08C0F
:101CF00043464FF0000200970028EBD14FF040011F
:101D0000204601F0F3FC30B10320C7E735F8020BA1
:101D1000C0F30800E6E7202084F841000020BDE77A
:101D20007047000010B5124C94F8680000281ED0CF
:101D300094F86600801E81B2601C00F067FC94F885
:101D40006610621E635C895C03EB012189B28842E4
:101D500009D1607894F8E110884204D1A078032872
:101D600001D100F009F8002004F8660FA07010BD42
:101D7000FC190020FEE7000070B50C4DEE7806EB74
:101D8000D67041100AA001F021FD002408E02819B6
:101D9000427901790EA002EB012301F017FDA41C8A
:101DA000B442F4DB012085F8ED0070BDFC19002081
:101DB000B4D3BBFAB7B5BBD820256420B8F6BCC4F1
:101DC000B4E6C6F7CAFDBEDDA3BA0D0A00000000E6
:101DD00054656D705F486269743D202564205465C8
:101DE0006D705F4C6269743D2025642074656D7070
:101DF0003D2025640D0A000010B5124C0621601C20
:101E000000F004FC217AE27901EB0221884215D12D
:101E1000617894F8E100814210D1A07806280DD1B4
:101E2000A079627900EB02232079E27800EB0222AC
:101E300005A001F0CBFC0FA001F0C8FC012084F844
:101E4000EE0010BDFC190020B5D8D6B7CEAA2025CB
:101E50006420B5C4B4D3BBFABCC4B4E6C6F720252D
:101E60006420D6D0D0B4C8EBCAFDBEDD20256420E6
:101E70000D0A2000486F73745F30362077726974E2
:101E8000652064617461207269676874210D0A00BD
:101E900070B5144C84F8E10004F8CD0F0320607095
:101EA000080AA070E170100A20710E4862710621C4
:101EB000CD3000F0ABFB010AA171E0716420CD3C94
:101EC000FEF7FAFB0025601990F8CD0000F0C0FB8A
:101ED0006D1C082DF7DB0A20FEF7EEFB012084F8CD
:101EE000E20070BDFC19002070B5134C84F8E100CD
:101EF00004F8CD0F100A6170A070E270180A20710A
:101F00000D4863710621CD3000F080FB010AA171FC
:101F1000E0710025CD3C601990F8CD0000F098FBF1
:101F20006D1CADB2082DF6D30A20FEF7C5FB0120CB
:101F300084F8E30070BD0000FC19002070B5012298
:101F40000B4DD40221462846FEF7BDFC01221603A4
:101F500031462846FEF7B7FC002231462846FEF7F8
:101F6000B2FC21462846BDE870400022FEF7ABBC1B
:101F70000008014070B5094C0122D1022046FEF74D
:101F8000A2FCA514002229462046FEF79CFC294607
:101F90002046BDE870400122FEF795BC00080140D4
:101FA00070B50122064DD40221462846FEF78BFC6F
:101FB00021462846BDE870400022FEF784BC0000A0
:101FC000000801402DE9F041144F04464FF400662B
:101FD000002231463846FEF776FC00254FF4805843
:101FE00004F08000802816D0002241463846FEF7D3
:101FF0006AFC6006040E012231463846FEF763FC97
:10200000002231463846FEF75EFC6D1CEDB2082D0D
:10201000E6D3BDE8F0810122E7E7000000080140B7
:1020200010B50446FFF78AFF7820FFF7CBFFFFF7D4
:10203000B7FF0020FFF7C6FFFFF7B2FF2046FFF70C
:10204000C1FFFFF7ADFFBDE81040FFF793BF10B52C
:102050000446FFF773FF7820FFF7B4FFFFF7A0FFF8
:102060004020FFF7AFFFFFF79BFF2046FFF7AAFFD7
:10207000FFF796FFBDE81040FFF77CBF08B500F002
:10208000E7FF23480021009003231422084600F0B4
:1020900007FB1F480223AE300090242200211420A9
:1020A00000F0FEFA1A4802238830009080220021B6
:1020B000702000F0F5FA164808233C3000901422F6
:1020C0000621042000F0ECFA1248009006231C229E
:1020D00004210C2000F0E4FA0F4800900823582255
:1020E0000221282000F0DCFA0A480623263000905E
:1020F00073220421632000F0D3FA054808236230DC
:1021000000907B2206216B2000F0CAFA08BD000077
:102110009A060020CE0100207A05002008B5002193
:10212000102311A2084600F016FE102311A202216E
:10213000002000F010FE102312A20421002000F065
:102140000AFE15480090082314220621042000F0FE
:10215000A7FA11480823263000907B2206216B2025
:1021600000F09EFA08BD0000417574686F723A3144
:1021700032330000446174653A323032342F312FEB
:10218000310000004C61623A204D756C74692D6C11
:102190006576656C00000000D606002008B50021B9
:1021A000102311A2084600F0D6FD102311A202212F
:1021B000002000F0D0FD102312A20421002000F026
:1021C000CAFD13480090082314220621042000F0C1
:1021D00067FA0F480823263000907B2206216B20E7
:1021E00000F05EFA08BD0000417574686F723A3104
:1021F00032330000446174653A323032342F312F6B
:10220000310000004C61623A20313233000000009E
:10221000D606002010B50021102307A2084600F0C2
:102220009AFD102309A20221002000F094FD0B4921
:102230000220087010BD00005065726970686572F8
:10224000616C733A204C69676874730053746174ED
:1022500075733A204F70656E0000000098000020F2
:1022600010B59CB01C2216496846FDF7BBFF002143
:10227000684601F028FD134C11491C2220601C31D6
:1022800007A8FDF7AFFF002107A801F01CFD0C49CE
:1022900060601C2238310EA8FDF7A4FF00210EA8B3
:1022A00001F011FD0649A0601C22543115A8FDF76C
:1022B00099FF002115A801F006FDE0601CB010BDDB
:1022C000EC460008000000202DE9F04F85B0002505
:1022D00032480095019502950395816941F01001FE
:1022E0008161816901F010010491816941F020014F
:1022F0008161816901F020010491816941F004014B
:102300008161816901F004010491816941F0080152
:1023100081618069012200F00800DFF88490540395
:10232000049021464846FEF7CEFADFF878A04FF435
:102330007067002239465046FEF7C5FADFF868B0EC
:102340004FF4C058002241465846FEF7BCFA0094AC
:1023500001240326CDE90246694648460194FEF76A
:10236000BDF902200097CDE901400390694650462F
:10237000FEF7B4F93801CDE90005694602945046EC
:10238000FEF7ACF901AACDF8008082E8700069463A
:102390005846FEF7A3F905B0BDE8F08F00100240E3
:1023A00000100140000C0140000801401CB5002451
:1023B0001A480194184900940160611EC0E9011493
:1023C000FEF744FF08B1FEF766F814208DF804000C
:1023D0008DF8054015208DF80600012201A90F484F
:1023E000FEF7FAFF08B1FEF756F805208DF8000059
:1023F00007208DF8010001208DF8020024208DF8BF
:102400000300012269460548FEF784FF002801D039
:10241000FEF741F81CBD000000280040900B002092
:1024200010B586B0002418480094019402940394D7
:1024300004944FF08041059401604721C0E90114E4
:1024400040F2E731C0E9031480218161FFF76EF8A3
:1024500008B1FEF720F84FF48050009069460A4812
:10246000FFF7E6F808B1FEF716F8049404A9064849
:102470000594FFF727F808B1FEF70DF80248FFF7BB
:10248000ABF806B010BD0000A40B002010B586B05C
:10249000002418480094019402940394049414496D
:1024A000059401604721C0E901144FF6FF71C0E9AE
:1024B000031480218161FFF739F808B1FDF7EBFFC4
:1024C0004FF48050009069460A48FFF7B1F808B110
:1024D000FDF7E1FF049404A906480594FEF7F2FF16
:1024E00008B1FDF7D8FF0348FFF776F806B010BD36
:1024F00000040040EC0B002010B50E4C0C480C21E1
:1025000020604FF4E13060600020A060E060C4E92A
:102510000401A061E0612046FFF716FB08B1FDF75A
:10252000BAFF2068C16841F02001C16010BD000001
:1025300000380140340C00200C4810B50A490160F5
:102540004FF4E1314160002181600C22C160C0E99B
:1025500004128161C161FFF7F7FA002803D0BDE8DA
:102560001040FDF798BF10BD004400407C0C0020D7
:10257000FEE7000070B501F087FA234C062804F24C
:1025800014750AD160780B2807D000EB400005EBEA
:1025900080004078607000F066F801F075FA02285B
:1025A0000AD160780B2807D000EB400005EB8000D3
:1025B0008078607000F057F801F066FA07280AD1B9
:1025C00060780B2807D000EB400005EB8000C07856
:1025D000607000F048F801F057FA05280AD16078D9
:1025E0000B2807D000EB400005EB800000796070FD
:1025F00000F039F8607800EB400005EB800080685F
:10260000E060BDE8704000479800002070B5094DBB
:10261000FF22134605F5807606E000BF10F8014B57
:1026200054402A5D5A40335D491E89B2F6D243EACE
:10263000022070BDB5580008044801210022017035
:1026400080F8672080F8E11070470000FC19002036
:1026500001B5FF23012269460148FFF714FB08BDBD
:10266000340C0020FEE770B50024002104F1B00016
:1026700000F08CFB0021084600F088FB00211020B0
:1026800000F084FB00250121002000F07FFB6D1C81
:10269000EDB2802DF7D3641CE4B2082CE5D370BDF5
:1026A0002DE9F04798461746824600260C46DDF88D
:1026B000209011E02146504600F0BEFA554607E052
:1026C00019F806000121761C00F060FB6D1CEDB2CC
:1026D000BD42F5D3641CE4B24445EBD3BDE8F087BA
:1026E0002DE9F05F05464FF000093A484FF0050824
:1026F0004F46012907D085B1012D10D0022D10D0F1
:10270000032D0ED00EE080210161424606210020FB
:1027100001F0A1FA8020BDE8F09F082702E0102711
:1027200000E0182700248246DAF81000002805DAB5
:10273000C0F10009A01DC1B2002002E0A11DC9B274
:10274000C0B200F079FAFFF7F9FB7820FFF73AFC06
:10275000FFF726FC4020FFF735FCFFF721FC09F0CE
:10276000FF06DFF874B015E0DAF8100030447F2877
:1027700012DC04FB07601DB3012D24D0022D25D0EF
:102780001549603111F80000FFF71CFCFFF708FC49
:10279000761CF6B2BE42E7DBFFF7ECFB641CE4B24A
:1027A000022CC1D3DAF810005446384442460621C0
:1027B00001F051FA2169A1EB080020614044AAE729
:1027C0001BF80000E0E704491031DBE70249303133
:1027D000D8E7000014090020DD5300082DE9F04778
:1027E000274C03260025A0681827183010F1030F86
:1027F00009DC8020A060FDF7E3FC032190FBF1F2EF
:1028000001FB12002070A068002805DA45422078FC
:10281000401CC1B2002003E02178C0B2491CC9B2FB
:1028200000F00AFAFFF78AFB7820FFF7CBFBFFF7EF
:10283000B7FB4020FFF7C6FBFFF7B2FBA046DFF86F
:102840004490BC1910E000BFD8F8080028447F2845
:102850000CDCBD4202DA19F8050000E00020FFF7A9
:10286000B1FBFFF79DFB6D1CAC42EDDCFFF782FB7B
:10287000D8F80810891BC8F80810BDE8F0870000D8
:1028800014090020055200082DE9F041174E184F99
:102890007078401C00F0010070700024A01DC1B2CF
:1028A000102000F0C9F9FFF749FB7820FFF78AFBF9
:1028B000FFF776FB4020FFF785FBFFF771FB002554
:1028C000717805EB041007EB4111085CFFF77AFB08
:1028D000FFF766FB6D1CEDB2102DF1D3FFF74AFB3D
:1028E000641CE4B2022CD9D3BDE8F08114090020A5
:1028F0001D5200082DE9FE4346A300260ECB8DE8AD
:102900000E000823464D3146012808D02846EF78AE
:10291000426980786C4647B1012F0CD014E06961A0
:10292000E970AB700020BDE8FE83235C401E1A44B2
:102930006A61A87008E0245C401C121BC0B26A6186
:10294000A870082800D9AB7068691F2804DB012033
:10295000E8701F20686110E0002802DCE9706961FE
:102960000EE007280CDD0F2801DC012608E01728FF
:1029700001DC022604E01F2801DC032600E0042617
:10298000DFF8A0800024C6F1050900BF09EB0400B0
:10299000C1B2102000F050F9FFF7D0FA7820FFF70D
:1029A00011FBFFF7FDFA4020FFF70CFBFFF7F8FAE9
:1029B0005FF00007686907EB0411C21700EB527261
:1029C00022F00702801A00EB400208EB0210405C84
:1029D000FFF7F8FAFFF7E4FA7F1CFFB2102FE9D3F4
:1029E000FFF7C8FA641CE4B2032CCFD3E87828B907
:1029F0001022C6F10801104601F02DF9E8780128EF
:102A000005D11022C6F10401104601F024F96869CD
:102A100089E7000001010303040405060700000024
:102A2000140900205D5200082DE9F041052640F20E
:102A300055270721002000F0FFF8FFF77FFA7820E4
:102A4000FFF7C0FAFFF7ACFA4020FFF7BBFAFFF739
:102A5000A7FA0D4DDFF83480002468682044B0FBED
:102A6000F7F107FB110118F80100FFF7ABFAFFF7C8
:102A700097FA641CE4B2802CEFD3FFF77BFA686806
:102A800030446860BDE8F08114090020B04F0008B0
:102A90002DE9F0410026184F02242146342000F091
:102AA000CBF8FFF74BFA7820FFF78CFAFFF778FAAC
:102AB0004020FFF787FAFFF773FA0025B85D761C10
:102AC000FFF780FAFFF76CFA6D1CEDB2182DF5D305
:102AD000FFF750FA641CE4B2052CDED3102307A2E2
:102AE00003210A2000F037F9BDE8F041102303214B
:102AF00004A2562000F02FB96D54000847414D45FF
:102B0000000000004F5645520000000070B5064618
:102B10000024002104F1B00000F038F9002108463B
:102B200000F034F90021102000F030F900250121D7
:102B3000304600F02BF96D1CEDB2802DF7D3641CEC
:102B4000E4B2082CE5D370BD10B56420FDF7B4FDE8
:102B50000021AE2000F01AF90021084600F016F915
:102B60000021102000F012F90021402000F00EF9A1
:102B70000021B02000F00AF90021812000F006F9C0
:102B80000021FF2000F002F90021A12000F0FEF852
:102B90000021A62000F0FAF80021A82000F0F6F8A5
:102BA00000213F2000F0F2F80021C82000F0EEF8EC
:102BB0000021D32000F0EAF80021084600F0E6F8F2
:102BC0000021D52000F0E2F80021802000F0DEF89E
:102BD0000021D82000F0DAF80021052000F0D6F816
:102BE0000021D92000F0D2F80021F12000F0CEF829
:102BF0000021DA2000F0CAF80021122000F0C6F807
:102C00000021DB2000F0C2F80021302000F0BEF8E7
:102C100000218D2000F0BAF80021142000F0B6F851
:102C20000021AF2000F0B2F86420FDF745FDBDE8BB
:102C300010400020FFF76ABF10B50A460446002185
:102C400002F1B00000F0A2F8102040EA14100021B8
:102C500000F09CF804F00F00BDE81040002100F0E7
:102C600095B800002DE9F041203A00240D46804639
:102C7000D6B27F2803D900208D1C8046EDB2102BE0
:102C8000294610D0FFF7D8FF164906EB460001EBA6
:102C900040050121285D00F079F8641CE4B2062C9F
:102CA000F7D3BDE8F081FFF7C7FF0F4F04EB061025
:102CB0000121385C00F06AF8641CE4B2082CF5D3FA
:102CC0006D1CE9B24046FFF7B7FF002404EB061085
:102CD00038440121007A00F059F8641CE4B2082C51
:102CE000F4D3DEE798470008C04900082DE9F05FFB
:102CF0000026DDF828901D4692468B4680463446D5
:102D00004FEA590723E0281B401EC1B20A2000F0F9
:102D1000C6FFBAFBF0F00A21B0FBF1F201FB120092
:102D200026B9691E8C4201DA38B101263030C2B2B0
:102D300007FB0480C0B24B4604E007FB0480C0B22E
:102D40004B4630225946FFF78DFF641CE4B2AC427B
:102D5000D9D3BDE8F09F2DE9F041984617460E46BD
:102D6000044600250DE0434631462046FFF77AFF32
:102D70000834E4B2782C02D90024B61CF6B26D1CDB
:102D8000EDB27A5D002AEED1BDE8F081C0B209B1A2
:102D9000FFF75DB9FFF744B908B500F059F92348CA
:102DA00000210090032314220846FFF779FC1F48F6
:102DB0000223AE300090242200211420FFF770FC83
:102DC0001A48022388300090802200217020FFF7EB
:102DD00067FC164808233C3000901422062104208A
:102DE000FFF75EFC1248009006231C2204210C20F1
:102DF000FFF756FC0F480090082358220221282094
:102E0000FFF74EFC0A480623263000907322042167
:102E10006320FFF745FC05480823623000907B22C1
:102E200006216B20FFF73CFC08BD00009A0600203D
:102E3000CE0100203A030020010901EB810100F0DE
:102E40000F0000EB4100C0B27047002102E00A38D9
:102E5000C0B2491C0A28FAD2090740EA116070473B
:102E60002DE9F04104460025C07B627BA37B42E054
:102E7000012A16D0032A14D0052A12D0072A10D00E
:102E8000082A0ED00A2A0CD00C2A0AD0042A10D004
:102E9000062A0ED0092A0CD00B2A0AD0022A0DD0FD
:102EA00028E01F2B0CD30C2A05D101221346401C0D
:102EB00020E01E2B04D30123521C1BE01C2B02D24A
:102EC00003F1010316E011D183B29E0710D16426ED
:102ED000B3FBF6F706FB173636B94FF4C876B3FBEB
:102EE000F6F706FB17331BB91D2303E01D2B01D199
:102EF000032201236D1C8D42BAD3D1B2E0736173FA
:102F0000DAB2A27300F050F82073BDE8F08170B51A
:102F10000446FDF7DDFC05464FF47A7606E0FDF742
:102F2000D7FC401BB04201D9032070BD2068406827
:102F30008006F4D52068416841F01001416000200E
:102F400070BD000070B504460068416821F01001B2
:102F50004160FDF7BDFC05464FF47A7607E000BFFF
:102F6000FDF7B6FC401BB04201D9032070BD2068BC
:102F700040688006F4D5002070BD0168086A496A7F
:102F800089B241EA00407047006881698AB2C1692C
:102F90008BB2816989B28A4203D0C06961F31F4054
:102FA000704743EA02407047F0B56424C1EBC103A7
:102FB0000927A500072603EB01130329B3FBF7F14B
:102FC00000F5FA60114401440AD2401EB0FBF4F24D
:102FD00001EB9001B0FBF5F0891A0844001D08E0F0
:102FE000B0FBF4F201EB9001B0FBF5F0891A084454
:102FF000801CB0FBF6F106FB1100C0B2F0BD70B54D
:103000000D4606460024FFF782FF48B93168280CB8
:1030100008623168A8B248623046FFF793FF00B1FA
:103020000124204670BD70B50D4606460024FFF70A
:103030006EFF48B93168280C88613168A8B2C86150
:103040003046FFF77FFF00B10124204670BD00002D
:1030500038B5002216491748FEF78BF814490022AC
:10306000C91C1448FEF75EF8114D102400942A780C
:10307000022300212820FFF739FE10230EA2002191
:103080003920FFF768FE00946A780223002142206D
:10309000FFF72CFE102308A200215320FFF75BFE50
:1030A0000094AA78022300215D20FFF71FFE38BD9F
:1030B0009B000020900B00203A00000010B500217A
:1030C000102307A20846FFF746FE102309A202219B
:1030D0000020FFF740FE0B490120087010BD0000E2
:1030E0005065726970686572616C733A204C6967EB
:1030F000687473005374617475733A20436C6F7312
:10310000656400009800002008B5FFF7A1FF24487F
:1031100000210090032314220846FFF7C1FA20483B
:103120000223AE300090242200211420FFF7B8FAC9
:103130001B48022388300090802200217020FFF776
:10314000AFFA174808233C300090142206210420CF
:10315000FFF7A6FA1348009006231C2204210C2036
:10316000FFF79EFA104800900823582202212820D9
:10317000FFF796FA0B4806232630009073220421AD
:103180006320FFF78DFA06480823623000907B2207
:1031900006216B20FFF784FA04490020087008BD5F
:1031A0009A060020CE0100205A040020980000203A
:1031B0000B4CDFF830804FF47A664FF4005760799B
:1031C000217900EB0125304600F071FD102D05D06E
:1031D000012239464046FDF776FBF0E70022F8E78A
:1031E000FC190020001001405FF0000400F04CFCCE
:1031F000102817D1641C012C02D0022C09D011E038
:103200004523022206210120FEF76EFEFEF7F4FDA3
:1032100008E05023022206210120FEF765FEFEF79A
:10322000EBFD00240A2000F042FDDFE7FFF7A2F9E2
:10323000142000F03CFDF9E70020401C0A2808D1CA
:10324000012200211046FEF723FEFEF76BFD0B2046
:10325000F3E7C828F1D14523022206210120FEF719
:1032600043FEFEF7C9FD0120F3E7000010B5502032
:1032700080F31188BFF34F8FBFF36F8F01F070F9A8
:1032800018B104494FF080500860002080F3118885
:1032900010BD000004ED00E070B594B02821684630
:1032A000FCF7B9FF14210AA8FCF7B5FF00250F951C
:1032B0000920012410950090119512954FF480304B
:1032C00004940694CDE901050226CDE907604FF488
:1032D000E01009906846FDF795FD08B172B6FEE76B
:1032E0000F20CDE90A064FF48060CDE90C50022191
:1032F0000AA80E95FDF78AFC08B172B6FEE74FF4F6
:103300000070CDE90F400FA8FDF70AFC002801D09E
:1033100072B6FEE714B070BD704700000148FEF7BA
:10332000F6B90000A40B00200148FEF7F0B9000038
:10333000C40C0020F0B50268164B174C174D4FF027
:103340008047984205D0B84203D0A04201D0A8429D
:1033500003D122F070064A683243984205D0B84241
:1033600003D0A04201D0A84203D122F44074CA681D
:1033700022434C6922F08002224302608A68C262C2
:103380000A688262984201D10969016301214161A1
:10339000F0BD0000002C0140000400400008004087
:1033A00010B5846842EA032224F47F440A4322438E
:1033B000826010BD826822F070020A4342F0070169
:1033C0008160704710B5036A046A24F00104046246
:1033D000846924F0F00444EA021423F00A020A4348
:1033E0008461026210BD10B5036A046A24F01004FF
:1033F0000462846923F0A00324F4704444EA023296
:1034000043EA01118261016210BD000008B5FFF7B7
:103410001FFE234800210090032314220846FFF7D3
:103420003FF91F480223AE300090242200211420CF
:10343000FFF736F91A4802238830009080220021D5
:103440007020FFF72DF9164808233C300090142215
:1034500006210420FFF724F91248009006231C22BD
:1034600004210C20FFF71CF90E4808234C30009073
:10347000582202212820FFF713F90A480623263094
:103480000090732204216320FFF70AF904480823FF
:10349000623000907B2206216B20FFF701F908BD06
:1034A0009A060020CE01002008B5FCF715FF094858
:1034B00000900823142206210420FFF7F1F80548A4
:1034C0000823263000907B2206216B20FFF7E8F8C6
:1034D00008BD0000D60600200D4900220B685A6284
:1034E0000A68136843F00103136009684A6A82425C
:1034F000FCD3086A41F21112104207D1086A9210F7
:10350000104203D1086820F00100086070470000F5
:10351000EC0B002010B5406A0021C185C184FEF784
:10352000DBF910BD01680C3151E8002F22F49072D4
:1035300041E80023002BF5D10168143151E8002F38
:1035400022F0010241E80023002BF5D1016B012993
:1035500009D101680C3151E8002F22F0100241E836
:103560000023002BF5D1202180F8421000210163B7
:10357000704708B590F84210222901D0022008BDFA
:1035800082684FF480539A4201D1016921B1816A66
:103590009A421BD04AB10AE00268816A5268C2F3BB
:1035A00008020A80816A891C08E0026972B1026817
:1035B000526802F07F020A70816A491C8162C18DE3
:1035C000491E0904090CC18503D01BE0026852683A
:1035D000F1E70168CA6822F02002CA600168CA687F
:1035E00022F48072CA6001684A6922F001024A61CD
:1035F000202180F8421000214163026B012A03D090
:10360000FEF740FB002008BD016301680C3151E862
:10361000002F22F0100241E80023002BF5D10168B1
:103620000A68D20602D50A6849680091818DFEF7C2
:1036300052F9E7E770B5044600680169E26821F4D1
:103640004051114301612169A06808436169084341
:103650002168CA6841F20C639A430243CA60206839
:103660004169A26921F44071114341611E492068FA
:10367000884202D1FDF790FB01E0FDF77DFB00EBF6
:10368000C00101EB0012606864218000B2FBF0F31E
:10369000B3FBF1F36FF018067343B2FBF0F5B2FB26
:1036A000F0F605EB8305322303EB0515B5FBF1F5C9
:1036B000B6FBF1F605F0F00505EB0615B2FBF0F6EA
:1036C000B2FBF0F0B0FBF1F06FF01802504306EBE4
:1036D000800003EB0010B0FBF1F0216800F00F0058
:1036E0002844886070BD0000003801402DE9F04199
:1036F000984617460E460446069D27E0681C25D0CE
:103700002DB1FDF7E5F8A0EB0800A8421ED920680E
:103710000C3050E8001F21F4D07140E80012002A5C
:10372000F5D12068143050E8001F21F0010140E875
:103730000012002AF5D1202084F8410084F84200CC
:10374000002084F840000320BDE8F0812068006874
:1037500036EA000004D00020B842CFD00020F3E7C2
:103760000120F9E710B51248FEF7B8F810480068D4
:103770000168C9438A060F4901D4406808700E48A1
:1037800090F86820012A11D00A7890F86630411C20
:103790005A5490F866100022491CC9B280F866108D
:1037A00080F86520012901D180F8671010BD000064
:1037B000340C00202C090020FC1900200148FEF7E1
:1037C0008DB800007C0C0020FEE700000FB4054B14
:1037D00010B503A9044A029800F028F810BC5DF85F
:1037E00014FB0000D1390008380900200907090E30
:1037F000002804DB00F1E02080F80014704700F09E
:103800000F0000F1E02080F8141D704702E008C8A6
:10381000121F08C1002AFAD170477047002001E04A
:1038200001C1121F002AFBD1704700002DE9FF4F94
:1038300089B09B460446002506E025280BD05A4651
:103840000B999047641C6D1C20780028F5D10DB0B1
:103850002846BDE8F08F0027B8460122474900E01E
:10386000074314F8013F203B02FA03F00842F7D166
:1038700020782E2819D114F8010F47F004072A28C0
:103880000ED06FF02F022078A0F1300109290CD85A
:1038900008EB880102EB410100EB0108641CF2E730
:1038A0000A98641C50F8048B0A9020780028CED027
:1038B000642808D0692806D075281ED05A460B996E
:1038C00090476D1C58E00A994FF00A0901C90A9106
:1038D000002802DA40422D2102E0390504D52B21CF
:1038E0008DF82010012103E0F90704D02021F7E72B
:1038F0008A4608AE0DE00021FAE70A994FF00A095E
:1039000001C90A91F7E74946FCF790FC303106F807
:10391000011D0028F7D1ADEB060000F12009780762
:1039200001D44FF00108C84502DDA8EB090000E012
:1039300000208046002706E008A85A46C05D0B9983
:1039400090476D1C7F1C5745F6DB04E030205A463B
:103950000B9990476D1CB8F10001A8F10108F5DC46
:1039600005E016F8010B5A460B9990476D1CB9F10A
:103970000001A9F10109F4DC641C65E709280100D4
:1039800070B5054600244FF47A7603E0304600F027
:1039900005F8641CAC42F9D370BD000070B54FF05F
:1039A000E024002265690949A36909684843A169BF
:1039B0009942FCD002D2A3EB010302E0A5EB010681
:1039C00033441A440B468242F1D370BD30090020C3
:1039D00013B54FF6FF73012269460248FEF753F90B
:1039E00000981CBD7C0C002008B5FFF731FB234874
:1039F00000210090032314220846FEF751FE1F48C1
:103A00000223AE300090242200211420FEF748FE4D
:103A10001A48022388300090802200217020FEF78F
:103A20003FFE164808233C30009014220621042053
:103A3000FEF736FE1248009006231C2204210C20BB
:103A4000FEF72EFE0F48009008235822022128205E
:103A5000FEF726FE0A480623263000907322042132
:103A60006320FEF71DFE05480823623000907B228C
:103A700006216B20FEF714FE08BD00009A06002008
:103A8000CE010020A80000202DE9F041604D002467
:103A9000A0462C604FF47E472F602E1F3068C0F385
:103AA00003300F281AD03220FFF76AFF3068C0F3C6
:103AB00003300F2812D0306800F47E402968B942E4
:103AC000FCD1B0F5FC4F7DD0B0F53E4F7BD0B0F5CA
:103AD0005E4F7FD0B0F56E4F7AD000244746C5F8D0
:103AE00000804FF47D48C5F800803068C0F3033093
:103AF0000F281BD03220FFF743FF3068C0F303309C
:103B00000F2813D03068414600F47D402A688A426D
:103B1000FCD1B0F5FA4F69D0B0F53D4F64D0B0F5A7
:103B20005D4F5FD0B0F56D4F5AD000242F604FF439
:103B30007B48C5F800803068C0F303300F281BD0E5
:103B40003220FFF71DFF3068C0F303300F2813D079
:103B50003068414600F47B402A688A42FCD1B0F5C7
:103B6000F64F4BD0B0F53B4F46D0B0F55B4F41D050
:103B7000B0F56B4F3CD000242F604FF477472F6097
:103B80003068C0F303300F281AD03220FFF7F8FE58
:103B90003068C0F303300F2812D0306800F477404B
:103BA0002968B942FCD1B0F5EE4F2FD0B0F5374FB0
:103BB0002AD0B0F5574F25D0B0F5674F20D000245C
:103BC000204603E00AE007E004E001E0BDE8F08100
:103BD000012483E7022481E703247FE704247DE7AF
:103BE0000524A3E70624A1E707249FE708249DE70F
:103BF0000924C1E70A24BFE70B24BDE70C24BBE777
:103C00000D24DDE70E24DBE70F24D9E71024D7E7E6
:103C10000C0C0140FCF76AFEFFF73EFBFEF754FB7D
:103C2000FEF78AFCFEF7C2FBFEF730FCFEF7F8FB5E
:103C3000FEF762FCFEF700FDFEF786FFFEF713FDC0
:103C4000FEF70EFB00F03AF8FEE70146002084295B
:103C500000D0C81C704770B505461646C9B2C0B240
:103C6000FEF7EAFFFEF76AF97820FEF7ABF9FEF7F8
:103C700097F94020FEF7A6F9FEF792F9002408E034
:103C80002819802807D80020FEF79CF9FEF788F94C
:103C9000641CB442F4D3BDE87040FEF76BB9024631
:103CA000012000E05043491EC9B2FBD2704710B555
:103CB00000B9012000F016FB002010BD10B500F087
:103CC00037FB002010BD7FB50D4604464169B0F9B1
:103CD000080081B1A16971B1FFF7B7FFD4E90512FE
:103CE0008DE80700D4E900102B46226900F00DFC96
:103CF000039004B070BDFFF7A8FF03A9CDE9000150
:103D0000208A2B4682B2D4E9001000F0D1FB0128B2
:103D100001D00020EDE70398EBE700002DE9F0412A
:103D2000184C0F46054666692068001D00F016FA1B
:103D300038B9206890F82C1001208840A16981438F
:103D4000A161681C07D137B12168BDE8F0410E4878
:103D5000091D00F047BA20683544B5424560216826
:103D600005D2A068BDE8F041091D00F023BA6068E3
:103D7000091D00F01FFA206B854200D22563BDE8C3
:103D8000F081000020000020E80D00202DE9F04126
:103D9000054600F033FA2E4C2069401C2061206853
:103DA0002C4F10B1E06940B32DE025602069012857
:103DB00029D1002606EB860007EB800000F0ECF925
:103DC000761C072EF6D323488C3000F0E5F9214805
:103DD000A03000F0E1F91F48B43000F0DDF91D48D3
:103DE000C83000F0D9F91B48DC3000F0D5F919488B
:103DF0008C3060601430A06005E02068E96AC06A19
:103E0000884200D82560E06A401CE062E96A01202F
:103E1000A26988401043A06101EB810007EB80009C
:103E2000291D00F0DFF900F009FAE06900280CD044
:103E30002068E96AC06A884207D207494FF080507B
:103E40000860BFF34F8FBFF36F8FBDE8F0810000B4
:103E5000200000200C0D002004ED00E010B5044609
:103E600090F8510058B101280CD002280FD05020F2
:103E700080F31188BFF34F8FBFF36F8FFEE7206B86
:103E800000F0F0F92046BDE8104000F0EBB910BD9D
:103E900010484FF44061420706D0C01D0D4920F084
:103EA0000700411AC1F540610B4A00230144C2E9F1
:103EB00000030839103A21F0070111604B600B60D4
:103EC0000B1AC0E9001393604FF000405360D060BC
:103ED00070470000FC0D00206C000020144E154CB3
:103EE000A6F1C8074FF08058DFF84C9012E000BFF1
:103EF00000F084F9F068C568281D00F02FF92069EA
:103F0000401E2061E068401EE06000F097F92846FE
:103F1000FFF7A4FFE0680028EAD138680128F9D942
:103F2000C9F80080BFF34F8FBFF36F8FF2E7000037
:103F3000D40D00202000002004ED00E02DE9F04722
:103F40009A46DDE9098481466FF00303206B03EB99
:103F500082021044089D20F00706700707D0502009
:103F600080F31188BFF34F8FBFF36F8FFEE72318E5
:103F70000A5C83F834200A5C12B1401C1028F6D386
:103F8000002784F84370072D00D30625E562C4E9B5
:103F90001157201D00F00BF904F1180000F007F98B
:103FA0002461C5F107006462A061E76484F8507081
:103FB00052464946304600F0BFF82060B8F1000F85
:103FC00001D0C8F80040BDE8F087000030B51149C5
:103FD00000E011460A688242FBD34B685C188442B9
:103FE00003D1406818444860084643681C1894424E
:103FF00009D1084C103C2468A24209D052681A44E6
:1040000042600A6812680260814200D0086030BDD8
:104010000460F9E76C00002006484168096829B18E
:104020004168C968C9684968016370474FF0FF314A
:10403000FAE700002000002008484068401C4FF0CC
:10404000500080F3118804D0BFF34F8FBFF36F8F00
:10405000FEE7BFF34F8FBFF36F8FFEE774000020C2
:104060002DE9F0410546002700F098F9314E3068FF
:1040700008B9FFF70DFFF06805424BD1C5B308350D
:1040800068070ED005F00700C0F108000544680776
:1040900007D0502080F31188BFF34F8FBFF36F8F8D
:1040A000FEE72DB37068854234D8224810300146AF
:1040B0000C6801E020460C466168A94202D22168E2
:1040C0000029F7D131688C4224D00768216801604B
:1040D00060680837411B10290FD96019420708D0C2
:1040E000502080F31188BFF34F8FBFF36F8FFEE72F
:1040F00010E041606560FFF769FF61687068401A11
:104100007060B268904200D2B060F0680143002055
:10411000C4E9000100F088FA780707D0502080F346
:104120001188BFF34F8FBFF36F8FFEE73846BDE8AE
:10413000F08100005C00002010B5031F4FF0807478
:104140001C601B1F21F001011960191F024B0B603D
:10415000143940380A6010BD39400008D0E90132F6
:1041600001699A60D0E901235A604A68824201D10C
:1041700082684A60002202610868401E0860086880
:1041800070470000034B036003F154000860802077
:10419000106070473C09002000F108014FF0FF3229
:1041A000C0E90112C1600161002101607047002176
:1041B0000161704730B50B685A1C02D000F108024B
:1041C00002E0026904E02246546825689D42FAD95B
:1041D00053684B6099608A60516008610168491CAE
:1041E000016030BD42684A6093688B609368596093
:1041F000916008610168491C01607047502080F39C
:104200001188BFF34F8FBFF36F8F0A494868401C76
:10421000486001280CD10848006810F0FF0F07D053
:10422000502080F31188BFF34F8FBFF36F8FFEE7ED
:10423000704700007400002004ED00E00849486861
:1042400028B1401E486001D180F31188704750208A
:1042500080F31188BFF34F8FBFF36F8FFEE700002D
:104260007400002070B5002827D0144DA0F1080478
:104270006168E868014207D1502080F31188BFF3DC
:104280004F8FBFF36F8FFEE722683AB1502080F363
:104290001188BFF34F8FBFF36F8FFEE781436160DB
:1042A00000F07CF860686968084468602046FFF7A1
:1042B0008DFEBDE8704000F0B7B970BD5C00002015
:1042C0004FF0E02000210161816105494FF47A72CD
:1042D0000968B1FBF2F1491E416107210161704794
:1042E0001C00002010B5020014D00F48806B38B1BC
:1042F000502080F31188BFF34F8FBFF36F8FFEE71D
:1043000000F04CF800211046FFF708FD00F08CF992
:10431000002807D105494FF080500860BFF34F8F48
:10432000BFF36F8F10BD00002000002004ED00E0FF
:1043300010B586B00024039405AA04A903A8049428
:10434000FFF720FFDDE903010094CDE90110002310
:104350000EA11048059A00F0D8F80F4900284863CC
:1043600011D0502080F31188BFF34F8FBFF36F8FB0
:104370004FF0FF3008630120C8614C6106B0BDE812
:10438000104000F041B806B010BD000049444C4553
:1043900000000000DD3E0008200000200248816B84
:1043A000491C816370470000200000201448816B85
:1043B00011B1012141627047002141628169B1FA66
:1043C00081F1C1F11F0101EB81020E4951F8223048
:1043D0006BB101EB820101F108034A6852684A603F
:1043E0009A4201D152684A60D168016070475020FA
:1043F00080F31188BFF34F8FBFF36F8FFEE700008C
:10440000200000200C0D00201CB5264908780190E2
:10441000FF20087008788DF800009DF800009DF8D6
:10442000002000F0F000904207D0502080F3118867
:10443000BFF34F8FBFF36F8FFEE79DF800001A4B5D
:1044400000F0500018700720986005E09DF80020EB
:1044500052008DF80020401E9DF800201206F5D471
:104460009860032807D0502080F31188BFF34F8F46
:10447000BFF36F8FFEE74FF44070986001980870AB
:104480000A48016841F470010160016841F070411F
:104490000160FFF715FF00205860FBF745FE002084
:1044A0001CBD000000E400E07400002020ED00E0EE
:1044B0002DE9FF5F8346DDE90E87994616468A4659
:1044C0009000FFF7CDFD05001CD05420FFF7C8FD7C
:1044D000040014D00020256384F85100CDE9024087
:1044E000CDE900874B46324651465846FFF726FD38
:1044F0002046FFF74BFC012004B0BDE8F09F2846A2
:10450000FFF7B0FE4FF0FF30F6E7F0B585B0DDE91C
:104510000B640A9DA6B1DCB15427009726630226DE
:1045200084F85160002604AFCDE90246CDE900577A
:10453000FFF704FD2046FFF729FC049805B0F0BD05
:10454000502080F31188BFF34F8FBFF36F8FFEE7CA
:10455000502080F31188BFF34F8FBFF36F8FFEE7BA
:104560002DE9F0412E4C0027A06B40B1206A401C81
:104570002062606A00B101273846BDE8F0816669B3
:10458000761C666113D16068006838B1502080F3F2
:104590001188BFF34F8FBFF36F8FFEE76068A1688C
:1045A0006160A060A06A401CA062FFF735FD206B2F
:1045B000DFF87080864209D36068006880B1606867
:1045C000C068C568686886420DD220632068C06AEA
:1045D00000EB800158F821000128CAD90127C8E75B
:1045E0004FF0FF30F1E7281DFFF7B8FDA86A18B1BA
:1045F00005F11800FFF7B2FDE86A0121A2698140C8
:104600001143A16100EB800108EB8100291DFFF738
:10461000E9FDE86A2168C96A8842CDD30127CBE762
:10462000200000200C0D00202DE9F0472C4D002427
:104630002746A86B38B1FFF7E1FDA86B401EA863C1
:10464000A86B40B146E0502080F31188BFF34F8F34
:10465000BFF36F8FFEE72969224E0120D1B3A6F187
:10466000B40980463068E8B1F068C46804F1180005
:10467000FFF774FD201DFFF771FDE06AAA6908FAD3
:1046800000F11143A96100EB800109EB8100211DBC
:10469000FFF7A8FDE06A2968C96A8842E2D3C5F835
:1046A0002480DFE70CB1FFF7B7FC2C6A44B1464623
:1046B000FFF756FF00B16E62641EF9D10020286238
:1046C000686A38B10849012738070860BFF34F8F7F
:1046D000BFF36F8FFFF7B2FD3846BDE8F0870000EB
:1046E00020000020C00D002004ED00E0B85A0008B2
:1046F000B1310008FFFF0000000000008000000052
:104700000000000000000000D05A00082D32000810
:10471000FFFF00000000000080000000000000001B
:1047200000000000C45A000839320008FFFF0000F2
:1047300000000000800000000000000000000000F9
:10474000DC5A0008E9310008FFFF0000000000000B
:1047500080000000000000000000000001020203D1
:104760000405060708090A0B0C0D0E0F10100102B4
:1047700002030405060708090A0B0C0D0E0F1010A2
:104780000000000000000000010203040607080901
:10479000000000000102030400000000000000000F
:1047A000002F000000000700070000147F147F1492
:1047B00000242A7F2A120062640813230036495518
:1047C000225000000503000000001C2241000000F0
:1047D00041221C000014083E08140008083E080886
:1047E000000000A0600000080808080800006060E1
:1047F0000000002010080402003E5149453E000020
:10480000427F4000004261514946002141454B3101
:10481000001814127F10002745454539003C4A49CD
:10482000493000017109050300364949493600063F
:104830004949291E000036360000000056360000A7
:104840000008142241000014141414140000412222
:10485000140800020151090600324959513E007CFA
:104860001211127C007F49494936003E41414122E4
:10487000007F4141221C007F49494941007F0909CD
:104880000901003E4149497A007F0808087F00007D
:10489000417F4100002040413F01007F0814224138
:1048A000007F40404040007F020C027F007F0408F0
:1048B000107F003E4141413E007F09090906003E4C
:1048C0004151215E007F0919294600464949493175
:1048D0000001017F0101003F4040403F001F204098
:1048E000201F003F4038403F006314081463000756
:1048F0000870080700615149454300007F414100AD
:1049000000552A552A55000041417F00000402014C
:10491000020400404040404000000102040000202A
:1049200054545478007F4844443800384444442068
:1049300000384444487F00385454541800087E0915
:1049400001020018A4A4A47C007F080404780000DD
:10495000447D4000004080847D00007F102844009A
:104960000000417F4000007C04180478007C0804AB
:10497000047800384444443800FC242424180018E7
:10498000242418FC007C08040408004854545420D3
:1049900000043F444020003C4040207C001C20405C
:1049A000201C003C4030403C004428102844001C9F
:1049B000A0A0A07C004464544C4414141414141497
:1049C00000000000000000000000000000000000E7
:1049D000000000F80000000000000033300000007C
:1049E00000100C06100C0600000000000000000083
:1049F00040C07840C0784000043F04043F040400F5
:104A0000007088FC08300000001820FF211E000004
:104A1000F008F000E018000000211C031E211E0019
:104A200000F00888700000001E212324192721109F
:104A300010160E0000000000000000000000000042
:104A4000000000E0180402000000000718204000E9
:104A500000020418E00000000040201807000000D9
:104A6000404080F0804040000202010F010202003D
:104A7000000000F0000000000101011F0101010021
:104A8000000000000000000080B070000000000086
:104A9000000000000000000000010101010101010F
:104AA00000000000000000000030300000000000A6
:104AB000000000008060180400601806010000007B
:104AC00000E010080810E000000F102020100F0078
:104AD000001010F8000000000020203F20200000FF
:104AE0000070080808887000003028242221300057
:104AF00000300888884830000018202020110E005F
:104B00000000C02010F8000000070424243F240007
:104B100000F80888880808000019212020110E00DC
:104B200000E0108888180000000F112020110E00EE
:104B300000380808C83808000000003F00000000E6
:104B40000070880808887000001C222121221C00A7
:104B500000E010080810E0000000312222110F00D0
:104B6000000000C0C0000000000000303000000065
:104B700000000080000000000000806000000000D5
:104B800000008040201008000001020408102000EE
:104B90004040404040404000040404040404040039
:104BA00000081020408000000020100804020100CE
:104BB000007048080808F0000000003036010000CE
:104BC000C030C828E810E0000718272423140B0081
:104BD0000000C038E0000000203C230202273820FB
:104BE00008F8888888700000203F202020110E00DF
:104BF000C0300808080838000718202020100800D6
:104C000008F808080810E000203F202020100F00BE
:104C100008F88888E8081000203F2020232018008A
:104C200008F88888E8081000203F200003000000F2
:104C3000C03008080838000007182020221E020093
:104C400008F808000008F808203F210101213F2052
:104C5000000808F8080800000020203F202000007D
:104C600000000808F8080800C08080807F0000006D
:104C700008F888C028180800203F200126382000A6
:104C800008F8080000000000203F2020202030000D
:104C900008F8F800F8F80800203F003F003F200027
:104CA00008F830C00008F808203F200007183F002F
:104CB000E01008080810E0000F10202020100F005E
:104CC00008F808080808F000203F21010101000051
:104CD000E01008080810E0000F18242438504F0096
:104CE00008F8888888887000203F2000030C302056
:104CF00000708808080838000038202121221C0094
:104D0000180808F8080818000000203F20000000DC
:104D100008F808000008F808001F202020201F00C5
:104D20000878880000C83808000007380E01000025
:104D3000F80800F80008F800033C0700073C0300EF
:104D4000081868808068180820302C03032C302055
:104D50000838C800C83808000000203F20000000C4
:104D600010080808C838080020382621202018001C
:104D7000000000FE020202000000007F40404000F0
:104D8000000C30C000000000000000010638C00028
:104D900000020202FE000000004040407F000000D0
:104DA00000000402020204000000000000000000F5
:104DB00000000000000000008080808080808080F3
:104DC00000020204000000000000000000000000DB
:104DD00000008080808000000019242222223F20D1
:104DE00008F8008080000000003F112020110E0014
:104DF0000000008080800000000E112020201100A3
:104E0000000000808088F800000E112020103F2054
:104E10000000808080800000001F222222221300D8
:104E2000008080F0888888180020203F2020000023
:104E30000000808080808000006B949494936000D8
:104E400008F8008080800000203F210000203F20E3
:104E500000809898000000000020203F20200000E3
:104E6000000000809898000000C08080807F0000D3
:104E700008F8000080808000203F24022D302000B0
:104E8000000808F8000000000020203F202000005B
:104E90008080808080808000203F20003F20003F75
:104EA0008080008080800000203F210000203F2083
:104EB0000000808080800000001F202020201F0034
:104EC000808000808000000080FFA12020110E0063
:104ED0000000008080808000000E112020A0FF8054
:104EE000808080008080800020203F212000010001
:104EF0000000808080808000003324242424190056
:104F0000008080E0808000000000001F2020000062
:104F10008080000000808000001F202020103F20A3
:104F2000808080000080808000010E300806010033
:104F300080800080008080800F300C030C300F00D8
:104F400000808000808080000020312E0E31200003
:104F5000808080000080808080818E701806010033
:104F600000808080808080000021302C2221300051
:104F700000000000807C020200000000003F404072
:104F800000000000FF00000000000000FF00000023
:104F90000002027C800000000040403F0000000052
:104FA00000060101020204040000000000000000ED
:104FB000C8C8C828282808C8C80808080808080851
:104FC0000808080808480808C8C8C8083838080881
:104FD00008080848480808080808082808484848F1
:104FE00008080828280808080808080808C8080841
:104FF0000808080808480808080808083838080891
:105000000808080808080808084808282808484820
:1050100008080808080808080808080828080808F0
:105020000838380868080808080808280808080820
:1050300008080848084848080808080808484808B0
:105040000808080808086808080808080808080880
:105050000828080808080808C8C80809080808082F
:10506000083838080828080908080808080808281F
:1050700028080808090808080808080808686808CF
:10508000C9C8C8080808C80808080828290808085E
:10509000080808080808080848490808080808080F
:1050A0000808080808686808082828080808080880
:1050B000080868680808C8C8080808080808080830
:1050C0002828082808080808082828280808480860
:1050D000383808080808C80808080808C8C8C828D0
:1050E000282808C8C8080808080808080808080880
:1050F00048480808C8C8C8083838080808080848D0
:1051000048080808080828280848484808080828BF
:10511000280808080808080808C80808080C060233
:105120004242060C080808083838081818101010F1
:1051300010101818084808282808484808080808BF
:1051400008080808080808282808080808383868DF
:10515000680808080808082808080808080808480F
:1051600008484808080808080848480808080808BF
:1051700008686808080808080808080828280808AF
:10518000080808C8C8C808080808080828383808DF
:10519000082808080808080808082828280808080F
:1051A000080808080808080808686808C8C8C8087F
:1051B0000808C8080808082828080808080C040671
:1051C0000202060C4C480808080C04060202060CF1
:1051D0000C6868082828280808080808086868680B
:1051E0000808C8C80808080808080808282828283F
:1051F000080808080828282808084828383808080F
:105200000808C8080880C0E070B0B0B098888E83E5
:1052100083838181938E8C888898B0F0C0E0800071
:10522000000080C0E0FEFFFDBFAF2F2F0E03070F71
:105230001EFFBF1F1F3F2F070001000000E080007E
:10524000000080C0E0FEFFFDBFAF2F2F0E03070F51
:105250001E3F7F5F3FFF8F0700010000000000003E
:1052600000000000000000000000000000E08000DE
:10527000000080C0C0FEFFFDBFAF2F2F0E03070F41
:105280001FFFBF1F3FFF8F0700010000000000004D
:1052900000000000000080808080808000F0C080DE
:1052A0008080C0E0E0FFFFFE5FD71717070103070C
:1052B0000F7F5F0F1F7F470300000000000000000A
:1052C000000000000080C040C0C0C0C080F8E0C046
:1052D000C0C0E0F0F0FFFFFF2F6B0B0B03000103DA
:1052E000073F2F070F3F23010000000000000000D0
:1052F0000000000000C0E0A0E0E0E0E0C07CF0E0E2
:10530000E0E0F0F8F8FFFFFF1735050501000001A8
:10531000031F1703071F110000000000000000001A
:105320000000000000E0F0D0F0F0F0F0E03E78F097
:10533000F0F0F8FCFCFFFF7F0B1A020200000000F7
:10534000010F0B01030F0800000000000000000027
:105350000000000000F0F8E8F8787878701F3C78DA
:10536000F8F8FCFEFEFF7F3F050D01010000000084
:105370000007050001070400000000000080000095
:105380000000000000F8FCF4FCBCBCBC380F1E3C64
:105390007CFCFE7FFFFF3F1F0206000000000000B4
:1053A00000030200000302000000000000C0000033
:1053B0000000008080FCFEFA7E5E5E5E1C070F1E11
:1053C0003EFE7F3F7FFF1F0F010300000000000033
:1053D00000010100000101000000000000F0F000E9
:1053E000FFFF00F0F0030786FFFF060301F0E00077
:1053F000FFFE80FC00007CC0FEFF0080FC0307066F
:10540000FFFF011090909000FFFF030301F0E00008
:10541000FFFE80FC00FCFE00FFFF00F8F000FE80B5
:10542000FEFFFE78FC131706FFFF01101013370470
:10543000FFFF080F17101001FFFF031311F0E0002A
:10544000FFFE00F000C000FFFE603C8000007CC05A
:10545000FEFF00F0F8434786FFFF26A3A02704FFC6
:10546000FF0008FF882F0000FFFF062321FCFFFF3D
:10547000FFFFFF3F3F3F3F0F1F3FFFFFFF3F3FFF4C
:10548000FFFFFFFFFCFFFFFFFFFF00007E7E7E7837
:105490007C7E7F7F7F7E0000FFFFFFFFFF3FFFFFDF
:1054A000FFFFFFFCFCFCFCFCFCFCFCFCFCFCFCFF30
:1054B000FFFFFFFF3F0000000000000000E0F030B1
:1054C0003030300000F0F0C0C0F0F00000F0F0B07C
:1054D000B070600000E0F03030F0E00000F0F0303C
:1054E000F0F030F0E000E0E090909090900000004C
:1054F00000000000000000000000000000000000AC
:10550000000000000080800000000000000000009B
:10551000000000000000000000000000000000008B
:10552000000000000000000000000000000000007B
:1055300000000000000000000000000000F3F7364B
:1055400036F6E600F0F707C1C13737F0C007C7E00D
:10555000303737E0C0030706F6F7B3B0B0F7E7001F
:10556000F7F70007F7F003E3F43434F4E400000045
:1055700000000000000000000000000010100C04FB
:105580001414121111111011121212141C10000017
:10559000000000000000000000000000000000000B
:1055A00000000000000000000000000000000000FB
:1055B000000000000000000000000000000F0F0CC1
:1055C0000C0F07000F0F000F0F00000F0F00030755
:1055D0000C0C0C07030000000F0F0101010E0E0060
:1055E000070F0C0C0707000F0F00000F0F00000043
:1055F00000000000000000000000000000000000AB
:10560000000000000000000000000000000000009A
:105610000000000000000000000080C060A0A0A00A
:105620009088888C889090B0A0C080000000000016
:10563000000000000000000000000000000000006A
:10564000000040400040404040404040404000009A
:10565000F0FCFC9C9CFCFCFCFCFCFCFCFCFCFCF062
:10566000F00000000000000000000000000000004A
:10567000000000000000000000000000000000002A
:10568000000000000000800000000000000000009A
:10569000000000000000000000000000000000000A
:1056A000000000000080000000000000000000007A
:1056B000000000000000000000000000000080006A
:1056C0000008000008080808080808080000808092
:1056D000FFFFFFFFFFFF7F7F4F4F4F4F4F4F0F0FDA
:1056E0000F000000000000000000000000000000AB
:1056F00000000000000000000000000000000000AA
:105700008080000000FFFFFFFF000080800000009D
:105710000000FEFEFE0000F0E00000000000F0F8D7
:10572000F00000FFFFFFFF0000808080000000000D
:105730000000000000000000000000000000FFF872
:10574000F8E0E0808080C0E0F8F8F8FEFEFEFFFFA1
:10575000FFFFFFFFFFFF18083838000000000000BF
:105760000000000000000000000000000000000039
:105770000000000000000000000000000000000029
:10578000FFFF010000FFFFFFFF0000FFFF00FCFE26
:105790000400FFFFFF0C0C8F8300F0F000809F3FA0
:1057A0007F7070FFFFFFFF000000FFFF00000000A0
:1057B00000000000000000000000000000000307DF
:1057C0000F1F1F7F7FFFFFFFFFFFFFFFFFFFFFFF99
:1057D000FF7F7F1F1707000000000000000000008F
:1057E00000000000000000000000000000000000B9
:1057F00000000000000000000000000000000000A9
:105800000103070707FFFFFFFF0303010000030772
:105810000E0CFFFFFF00001F3F20FFFF201F0F00A7
:10582000000000FFFFFFFF03030301000000000072
:105830000000000000828282020222222222020252
:1058400002828200000001FF9F9F070701010707F6
:10585000FF8080000002020202C2020202020282F3
:1058600082828202023232322202020202000000EE
:1058700000000000000000000000000002424202A0
:1058800002020202000F0F0F0F00010101111101AE
:1058900001000F0F0F00013111000F0F000D0D015E
:1058A0001111101F1F1F1F10000D01010101010127
:1058B0000D0D01000000C1814001C0804101C08088
:1058C0004100C1814001C0804100C1814000C181CF
:1058D0004001C0804101C0804100C1814000C181C0
:1058E0004001C0804100C1814001C0804101C080B1
:1058F0004100C1814001C0804100C1814000C1819F
:105900004001C0804100C1814001C0804101C08090
:105910004100C1814000C1814001C0804101C0807F
:105920004100C1814001C0804100C1814000C1816E
:105930004001C0804101C0804100C1814000C1815F
:105940004001C0804100C1814001C0804101C08050
:105950004100C1814000C1814001C0804101C0803F
:105960004100C1814001C0804100C1814000C1812E
:105970004001C0804100C1814001C0804101C08020
:105980004100C1814001C0804100C1814000C1810E
:105990004001C0804101C0804100C1814000C181FF
:1059A0004001C0804100C1814001C0804101C080F0
:1059B0004100C1814000C0C101C30302C2C6060745
:1059C000C705C5C404CC0C0DCD0FCFCE0E0ACACB73
:1059D0000BC90908C8D81819D91BDBDA1A1EDEDF73
:1059E0001FDD1D1CDC14D4D515D71716D6D2121303
:1059F000D311D1D010F03031F133F3F23236F6F763
:105A000037F53534F43CFCFD3DFF3F3EFEFA3A3BB2
:105A1000FB39F9F83828E8E929EB2B2AEAEE2E2F92
:105A2000EF2DEDEC2CE42425E527E7E62622E2E342
:105A300023E12120E0A06061A163A3A26266A6A782
:105A400067A56564A46CACAD6DAF6F6EAEAA6A6BF2
:105A5000AB69A9A86878B8B979BB7B7ABABE7E7FF2
:105A6000BF7DBDBC7CB47475B577B7B67672B2B382
:105A700073B17170B05090915193535292965657A2
:105A800097559594549C5C5D9D5F9F9E5E5A9A9B32
:105A90005B99595898884849894B8B8A4A4E8E8F12
:105AA0004F8D4D4C8C4484854587474686824243C2
:105AB00083418180400000004C45445F5461736B1A
:105AC000000000006D6F646275735F5461736B005A
:105AD0006D656E755F5461736B0000006B65796274
